:020000040800F2
:1000000000000220D13800084936000851360008A7
:100010005936000861360008693600080000000003
:100020000000000000000000000000007136000821
:100030007F360008000000008D3600089B3600085F
:100040002139000821390008213900082139000828
:100050002139000821390008213900082139000818
:100060002139000821390008213900082139000808
:10007000A936000821390008BD36000821390008DA
:1000800021390008213900082139000821390008E8
:1000900021390008213900082139000821390008D8
:1000A00021390008213900082139000821390008C8
:1000B00021390008213900082139000821390008B8
:1000C00021390008213900082139000821390008A8
:1000D00021390008D136000821390008E53600082A
:1000E0002139000821390008213900082139000888
:1000F0002139000821390008213900082139000878
:100100002139000821390008213900082139000867
:100110002139000821390008213900082139000857
:100120002139000821390008F93600082139000872
:100130002139000821390008213900082139000837
:100140002139000821390008213900082139000827
:1001500021390008213900080D370008213900082D
:100160002139000821390008213900082139000807
:100170002139000821390008213900080000000059
:080180002139000821390008B3
:1001900010B5054C237833B9044B13B10448AFF3C1
:1001A00000800123237010BD0C020020000000001D
:1001B0008CD2000808B5034B1BB103490348AFF3C9
:1001C000008008BD00000000100200208CD2000852
:1001D00001F0FF01102A2BDB10F0070F08D010F8F8
:1001E000013B013A8B422DD010F0070F42B3F6D1FC
:1001F000F0B441EA012141EA014122F007047FF015
:1002000000070023F0E80256083C85EA010586EA6B
:10021000010685FA47F5A3FA87F586FA47F6A5FAA7
:1002200087F68EB9EED1F0BC01F0FF0102F00702B3
:1002300032B110F8013B013A83EA010313B1F8D15E
:100240000020704701387047002D06BF354603383F
:10025000073815F0010F07D1013015F4807F02BF78
:10026000013015F4C03F0130F0BC0138704700BFC9
:10027000034613F8012B002AFBD1181A01387047E6
:1002800081F0004102E000BF83F0004330B54FEA47
:1002900041044FEA430594EA050F08BF90EA020FB4
:1002A0001FBF54EA000C55EA020C7FEA645C7FEA47
:1002B000655C00F0E2804FEA5454D4EB5555B8BF6A
:1002C0006D420CDD2C4480EA020281EA030382EADB
:1002D000000083EA010180EA020281EA0303362D6D
:1002E00088BF30BD11F0004F4FEA01314FF4801C40
:1002F0004CEA113102D0404261EB410113F0004F52
:100300004FEA03334CEA133302D0524263EB430308
:1003100094EA050F00F0A780A4F10104D5F1200EA6
:100320000DDB02FA0EFC22FA05F2801841F1000101
:1003300003FA0EF2801843FA05F359410EE0A5F1D5
:1003400020050EF1200E012A03FA0EFC28BF4CF006
:10035000020C43FA05F3C01851EBE37101F00045BC
:1003600007D54FF0000EDCF1000C7EEB00006EEBC9
:100370000101B1F5801F1BD3B1F5001F0CD3490853
:100380005FEA30004FEA3C0C04F101044FEA4452AA
:1003900012F5800F80F09A80BCF1004F08BF5FEA31
:1003A000500C50F1000041EB045141EA050130BD11
:1003B0005FEA4C0C404141EB0101013C28BFB1F523
:1003C000801FE9D291F0000F04BF01460020B1FA6E
:1003D00081F308BF2033A3F10B03B3F120020CDA41
:1003E0000C3208DD02F1140CC2F10C0201FA0CF01F
:1003F00021FA02F10CE002F11402D8BFC2F1200C84
:1004000001FA02F120FA0CFCDCBF41EA0C01904039
:10041000E41AA2BF01EB0451294330BD6FEA040482
:100420001F3C1CDA0C340EDC04F11404C4F120026D
:1004300020FA04F001FA02F340EA030021FA04F37F
:1004400045EA030130BDC4F10C04C4F1200220FAD6
:1004500002F001FA04F340EA0300294630BD21FA14
:1004600004F0294630BD94F0000F83F4801306BFDA
:1004700081F480110134013D4EE77FEA645C18BFCE
:100480007FEA655C29D094EA050F08BF90EA020F65
:1004900005D054EA000C04BF1946104630BD91EA5D
:1004A000030F1EBF0021002030BD5FEA545C05D160
:1004B0004000494128BF41F0004130BD14F580049F
:1004C0003CBF01F5801130BD01F0004545F0FE4113
:1004D00041F470014FF0000030BD7FEA645C1ABF48
:1004E000194610467FEA655C1CBF0B46024650EA7F
:1004F000013406BF52EA033591EA030F41F40021AB
:1005000030BD00BF90F0000F04BF0021704730B530
:100510004FF4806404F132044FF000054FF0000105
:1005200050E700BF90F0000F04BF0021704730B5C6
:100530004FF4806404F1320410F0004548BF40429B
:100540004FF000013EE700BF42004FEAE2014FEAF0
:1005500031014FEA02701FBF12F07F4393F07F4FCB
:1005600081F06051704732F07F4208BF704793F0CE
:100570007F4F04BF41F40021704730B54FF46074E1
:1005800001F0004521F000411CE700BF50EA0102E4
:1005900008BF704730B54FF000050AE050EA01028D
:1005A00008BF704730B511F0004502D5404261EBFD
:1005B00041014FF4806404F132045FEA915C3FF43E
:1005C000D8AE4FF003025FEADC0C18BF03325FEADB
:1005D000DC0C18BF033202EBDC02C2F1200300FA8C
:1005E00003FC20FA02F001FA03FE40EA0E0021FAB1
:1005F00002F11444BDE600BF70B54FF0FF0C4CF49F
:10060000E06C1CEA11541DBF1CEA135594EA0C0F50
:1006100095EA0C0F00F0DEF82C4481EA030621EA8B
:100620004C5123EA4C5350EA013518BF52EA0335C6
:1006300041F4801143F4801338D0A0FB02CE4FF078
:100640000005E1FB02E506F00042E0FB03E54FF0A8
:100650000006E1FB03569CF0000F18BF4EF0010EA0
:10066000A4F1FF04B6F5007F64F5407404D25FEA9C
:100670004E0E6D4146EB060642EAC62141EA55514F
:100680004FEAC52040EA5E504FEACE2EB4F1FD0C91
:1006900088BFBCF5E06F1ED8BEF1004F08BF5FEA0F
:1006A000500E50F1000041EB045170BD06F00046C1
:1006B00046EA010140EA020081EA0301B4EB5C046E
:1006C000C2BFD4EB0C0541EA045170BD41F4801166
:1006D0004FF0000E013C00F3AB8014F1360FDEBF8B
:1006E000002001F0004170BDC4F10004203C35DA67
:1006F0000C341BDC04F11404C4F1200500FA05F3EA
:1007000020FA04F001FA05F240EA020001F000428A
:1007100021F0004110EBD37021FA04F642EB060100
:100720005EEA430E08BF20EAD37070BDC4F10C042A
:10073000C4F1200500FA04F320FA05F001FA04F2EE
:1007400040EA020001F0004110EBD37041F10001DA
:100750005EEA430E08BF20EAD37070BDC4F12005E5
:1007600000FA05F24EEA020E20FA04F301FA05F24D
:1007700043EA020321FA04F001F0004121FA04F2F5
:1007800020EA020000EBD3705EEA430E08BF20EAC5
:10079000D37070BD94F0000F0FD101F000464000FF
:1007A00041EB010111F4801F08BF013CF7D041EA81
:1007B000060195F0000F18BF704703F00046520085
:1007C00043EB030313F4801F08BF013DF7D043EA56
:1007D0000603704794EA0C0F0CEA135518BF95EA0C
:1007E0000C0F0CD050EA410618BF52EA4306D1D193
:1007F00081EA030101F000414FF0000070BD50EAB2
:10080000410606BF1046194652EA430619D094EA3B
:100810000C0F02D150EA013613D195EA0C0F05D125
:1008200052EA03361CBF104619460AD181EA030179
:1008300001F0004141F0FE4141F470014FF0000031
:1008400070BD41F0FE4141F4780170BD70B54FF0CC
:10085000FF0C4CF4E06C1CEA11541DBF1CEA13554C
:1008600094EA0C0F95EA0C0F00F0A7F8A4EB05042E
:1008700081EA030E52EA03354FEA013100F0888025
:100880004FEA03334FF0805545EA131343EA1263EE
:100890004FEA022245EA111545EA10654FEA0026A3
:1008A0000EF000419D4208BF964244F1FD0404F55C
:1008B000407402D25B084FEA3202B61A65EB0305B8
:1008C0005B084FEA32024FF480104FF4002CB6EB75
:1008D000020E75EB030E22BFB61A754640EA0C00F5
:1008E0005B084FEA3202B6EB020E75EB030E22BF35
:1008F000B61A754640EA5C005B084FEA3202B6EB76
:10090000020E75EB030E22BFB61A754640EA9C0034
:100910005B084FEA3202B6EB020E75EB030E22BF04
:10092000B61A754640EADC0055EA060E18D04FEAC2
:10093000051545EA16754FEA06164FEAC30343EA62
:1009400052734FEAC2025FEA1C1CC0D111F4801F2F
:100950000BD141EA00014FF000004FF0004CB6E728
:1009600011F4801F04BF01430020B4F1FD0C88BFC7
:10097000BCF5E06F3FF6AFAEB5EB030C04BFB6EBD2
:10098000020C5FEA500C50F1000041EB045170BDC5
:100990000EF0004E4EEA113114EB5C04C2BFD4EBF2
:1009A0000C0541EA045170BD41F480114FF0000E76
:1009B000013C90E645EA060E8DE60CEA135594EAF2
:1009C0000C0F08BF95EA0C0F3FF43BAF94EA0C0FF5
:1009D0000AD150EA01347FF434AF95EA0C0F7FF46A
:1009E00025AF104619462CE795EA0C0F06D152EABE
:1009F00003353FF4FDAE1046194622E750EA4106A2
:100A000018BF52EA43067FF4C5AE50EA41047FF4B2
:100A10000DAF52EA43057FF4EBAE12E74FF0FF3C17
:100A200006E000BF4FF0010C02E000BF4FF0010CE8
:100A30004DF804CD4FEA410C7FEA6C5C4FEA430C61
:100A400018BF7FEA6C5C1BD001B050EA410C0CBFB0
:100A500052EA430C91EA030F02BF90EA020F002012
:100A6000704710F1000F91EA030F58BF994208BF79
:100A700090422CBFD8176FEAE37040F00100704736
:100A80004FEA410C7FEA6C5C02D150EA013C07D18D
:100A90004FEA430C7FEA6C5CD6D152EA033CD3D0D8
:100AA0005DF8040B704700BF8446104662468C46D2
:100AB0001946634600E000BF01B5FFF7B7FF002805
:100AC00048BF10F1000F01BD4DF808EDFFF7F4FF2E
:100AD0000CBF012000205DF808FB00BF4DF808EDB9
:100AE000FFF7EAFF34BF012000205DF808FB00BFDC
:100AF0004DF808EDFFF7E0FF94BF012000205DF8FE
:100B000008FB00BF4DF808EDFFF7CEFF94BF0120B2
:100B100000205DF808FB00BF4DF808EDFFF7C4FFAB
:100B200034BF012000205DF808FB00BF4FEA410CF4
:100B30007FEA6C5C02D150EA013C0AD14FEA430CD7
:100B40007FEA6C5C02D152EA033C02D14FF0000014
:100B500070474FF0010070474FEA410212F5001252
:100B600015D211D56FF47873B3EB625212D94FEAF4
:100B7000C12343F0004343EA505311F0004F23FADE
:100B800002F018BF404270474FF00000704750EA33
:100B9000013005D111F0004008BF6FF000407047F0
:100BA0004FF00000704700BF4A0011D212F500124A
:100BB00011D20DD56FF47873B3EB62520ED44FEAB5
:100BC000C12343F0004343EA505323FA02F0704735
:100BD0004FF00000704750EA013002D14FF0FF3073
:100BE00070474FF0000070474FEA4102B2F1E04316
:100BF00024BFB3F5001CDCF1FE5C0DD901F0004C04
:100C00004FEAC0024CEA5070B2F1004F40EB830053
:100C100008BF20F00100704711F0804F21D113F17F
:100C20003872BCBF01F00040704741F480114FEAB8
:100C30005252C2F11802C2F1200C10FA0CF320FA41
:100C400002F018BF40F001004FEAC1234FEAD3235E
:100C500003FA0CFC40EA0C0023FA02F34FEA4303C8
:100C6000CCE77FEA625307D150EA01331EBF4FF051
:100C7000FE4040F44000704701F0004040F0FE406C
:100C800040F40000704700BF53B94AB9002908BFBB
:100C900000281CBF4FF0FF314FF0FF3000F0BEB90D
:100CA000ADF1080C6DE904CE00F03CF8DDF804E08D
:100CB000DDE9022304B0704738B500220023044662
:100CC0000D46FFF70BFF28B920462946BDE83840FE
:100CD00000F00AB8204605F1004100F005F8404256
:100CE00061EB410138BD00BFD0B50C4B0022064678
:100CF0000F46FFF781FCFFF757FF0446FFF702FCA2
:100D0000074B0022FFF778FC02460B463046394677
:100D1000FFF7BAFAFFF748FF2146D0BD0000F03DCB
:100D20000000F0412DE9F047089D8E4604468846B4
:100D3000002B4AD18A42174662D9B2FA82F64EB1E6
:100D4000C6F1200301FA06F820FA03F3B74043EA9C
:100D50000808B4404FEA174E1FFA87FCB8FBFEF1B3
:100D6000230C0EFB118843EA084301FB0CF29A4264
:100D700009D9FB1801F1FF3080F0EA809A4240F275
:100D8000E78002393B449A1AA3B2B2FBFEF00EFB95
:100D9000102243EA024300FB0CFC9C4509D9FB18D6
:100DA00000F1FF3280F0D6809C4540F2D3803B4476
:100DB000023840EA0140A3EB0C0300211DB1F340CF
:100DC0000022C5E90032BDE8F0878B4205D90DB19C
:100DD000C5E9000100210846F5E7B3FA83F10029CF
:100DE00046D1734502D3824200F20581841A6EEB2C
:100DF000030201209046002DE5D0C5E90048E2E756
:100E0000002A00F09080B2FA82F6002E40F0A48012
:100E10008A1A030C4FEA174E80B2BCB20121B2FB12
:100E2000FEFC0EFB1C2243EA024304FB0CF29A4236
:100E300007D9FB180CF1FF3802D29A4200F2E08089
:100E4000C4469B1AB3FBFEF20EFB123340EA034387
:100E500002FB04F49C4207D9FB1802F1FF3002D2D6
:100E60009C4200F2CA8002461B1B42EA0C40A5E7E6
:100E7000C1F120068B4022FA06F71F430EFA01F457
:100E800020FA06F32EFA06FE4FEA1749234300FA2A
:100E900001F81FFA87FCBEFBF9F01C0C09FB10EEF1
:100EA00044EA0E4400FB0CFEA64502FA01F209D901
:100EB0003C1900F1FF3A80F09C80A64540F29980F1
:100EC00002383C44A4EB0E041FFA83FEB4FBF9F392
:100ED00009FB13444EEA044403FB0CFCA44508D967
:100EE0003C1903F1FF3E80F08280A4457FD9023B8C
:100EF0003C4443EA0040A4EB0C04A0FB02EC644534
:100F00007346E14662D35FD05DB1B8EB030264EB98
:100F1000090404FA06F622FA01F31E43CC40C5E99F
:100F2000006400214FE7B1FBF2FC010C41EA0E41E5
:100F300080B240EA01423B4638463C46B846BE468F
:100F40002026B1FBF7F1A2EB080241EA0C4166E76B
:100F5000014618E710462CE7C6F120022EFA02F3EC
:100F6000B740B14020FA02F24FEA174E0A43B3FBF2
:100F7000FEF8BCB20EFB1833110C41EA034108FB2A
:100F800004F9B04089454FEA104380B23ED9791840
:100F900008F1FF3C01D289451FD8A1EB0901B1FB43
:100FA000FEF909FB04F80EFB191192B242EA014264
:100FB000424529D2BA1809F1FF31C4D24245C2D202
:100FC000A9F102013A44BEE7F0459DD2BEEB02030F
:100FD0006CEB070C0138E14696E7A7EB0909494499
:100FE000A8F1020CB1FBFEF909FB04F8DBE773463C
:100FF0007FE7504666E70846FDE63B44023A33E7A2
:10100000ACF1020C3B441CE749469CE7A1EB09010B
:10101000C446B1FBFEF909FB04F8C4E7704700BF02
:1010200080B485B000AFF860B9607A607B80FB68FF
:10103000BA681A60FB687A685A60FB687A889A8195
:10104000FB6800221A74FB6800225A81FB680022A8
:101050001A81FB6800225A74FB6800229A7400BF50
:101060001437BD465DF8047B704780B483B000AF91
:1010700078607B68B3F90C309BB27A68127C13FB02
:1010800002F39AB27B68B3F908309BB213449AB268
:101090007B68B3F90A309BB2D31A9BB21BB21846D5
:1010A0000C37BD465DF8047B704780B483B000AF59
:1010B00078607B68B3F90C309AB27B681B7C002B9C
:1010C0000CBF01230023DBB29BB212FB03F39AB2E5
:1010D0007B68B3F90A309BB213449AB27B68B3F9C8
:1010E00008309BB2D31A9BB21BB218460C37BD46D0
:1010F0005DF8047B704780B584B000AF78607B6892
:101100001B68DB6B002B0DD07B68B3F90E309AB2F5
:101110007B681B68DB6B1B685B689BB2D31A9BB256
:101120001BB20AE07B68B3F90E309AB27B681B6889
:10113000DB8D9BB2D31A9BB21BB2FB81B7F90E3089
:10114000002B0FDDB7F90E301946786800F011F961
:101150007B68B3F90E309AB2FB89D31A9BB21AB2EC
:101160007B68DA817868FFF780FF034618461037FE
:10117000BD4680BD80B584B000AF78607B681B68D9
:101180009B6B002B0DD07B68B3F90E309AB27B6855
:101190001B689B6B1B685B689BB2D31A9BB21BB22C
:1011A0000AE07B68B3F90E309AB27B681B68DB8C6F
:1011B0009BB2D31A9BB21BB2FB81B7F90E30002B46
:1011C0000FDDB7F90E301946786800F0F6F87B6845
:1011D000B3F90E309AB2FB89D31A9BB21AB27B686C
:1011E000DA817868FFF761FF034618461037BD467D
:1011F00080BD80B586B000AFF860B9607A60F868ED
:10120000FFF7B8FF03461A467B68934201D90123D2
:101210004BE0FB68B3F908301A467B681344FA6860
:10122000B2F90C20934226D3FB68B3F90C309AB282
:10123000FB68B3F908309BB2D31A9BB2FB82FB6800
:101240005B68FA68B2F908201344B7F91620B96848
:10125000184608F068FDB7F91630BA681344BB6049
:10126000B7F916307A68D31A7B60FB6800221A81BE
:10127000FB6801221A747B68002B15D0FB685B6841
:10128000FA68B2F9082013447A68B968184608F079
:101290004AFDFB68B3F908309AB27B689BB21344ED
:1012A0009BB21AB2FB681A81002318461837BD4654
:1012B00080BD80B586B000AFF860B9607A60F8682C
:1012C000FFF719FF03461A467B68934201D90223B0
:1012D0004BE0FB68B3F90A301A467B681344FA689E
:1012E000B2F90C20934226D3FB68B3F90C309AB2C2
:1012F000FB68B3F90A309BB2D31A9BB2FB82FB683E
:101300005B68FA68B2F90A201344B7F91620194647
:10131000B86808F008FDB7F91630BA681344BB6026
:10132000B7F916307A68D31A7B60FB6800225A81BD
:10133000FB6800221A747B68002B15D0FB685B6881
:10134000FA68B2F90A2013447A681946B86808F0B6
:10135000EAFCFB68B3F90A309AB27B689BB213448B
:101360009BB21AB2FB685A81002318461837BD4653
:1013700080BD80B483B000AF78600B467B807B6813
:10138000B3F908309AB27B8813449BB21AB27B68D7
:101390001A817B68B3F908207B68B3F90C309A4254
:1013A00005DB7B6800221A817B6801221A7400BF6A
:1013B0000C37BD465DF8047B704780B483B000AF46
:1013C00078600B467B807B68B3F90A309AB27B88E1
:1013D00013449BB21AB27B685A817B68B3F90A2026
:1013E0007B68B3F90C309A4205DB7B6800225A8196
:1013F0007B6800221A7400BF0C37BD465DF8047B81
:10140000704780B483B000AF78607B681B7C002B92
:101410000BD07B68B3F90C309AB27B68B3F90A3011
:101420009BB2D31A9BB21BB20AE07B68B3F90830B7
:101430009AB27B68B3F90A309BB2D31A9BB21BB243
:1014400018460C37BD465DF8047B704780B483B006
:1014500000AF78607B681B7C002B0BD07B68B3F9F6
:101460000A309AB27B68B3F908309BB2D31A9BB2A8
:101470001BB20AE07B68B3F90C309AB27B68B3F90F
:1014800008309BB2D31A9BB21BB218460C37BD462C
:101490005DF8047B704780B584B000AF78600B4680
:1014A0007B807868FFF7E1FD0346FB817868FFF7F2
:1014B000A8FF0346BB81B7F90E20B7F90C309A425A
:1014C00005D1FA897B88D31A9BB21BB216E0B7F913
:1014D0000C20B7F902309A4205DDBA897B88D31A0D
:1014E0009BB21BB20AE07B68B3F908309AB2B989A3
:1014F0007B88CB1A9BB213449BB21BB218461037A1
:10150000BD4680BD80B483B000AF78607B685B6807
:101510007A68B2F90A20134418460C37BD465DF8C4
:10152000047B704780B483B000AF78607B685B68F1
:101530007A68B2F90820134418460C37BD465DF8A6
:10154000047B704780B483B000AF78600B467B802B
:101550007B68B3F90A309AB27B8813449BB27B80D4
:101560007B68B3F90C30B7F902209A420ADBB7F96D
:1015700002307A68B2F90C2093FBF2F101FB02F21F
:101580009B1A7B807B685A68B7F90230134418466F
:101590000C37BD465DF8047B704780B586B000AF60
:1015A000F860B9601346FB80F868FFF7A4FD0346B6
:1015B0001A46B7F90630934202DD4FF0FF3326E0BA
:1015C0000023FB8213E0B7F90630B7F91610BA68AA
:1015D000F86800F079F80346002B02D1B7F916300D
:1015E00015E0B7F916309BB201339BB2FB82BB68A2
:1015F0001A78B7F916301946F86800F00CF8034667
:10160000FB82B7F91630002BDDDA4FF0FF331846B6
:101610001837BD4680BD90B587B000AF78600B46E7
:101620007B8013467B700023FB81B7F9023019469B
:101630007868FFF787FF78617868FFF716FD034643
:101640001A46B7F90230934202DD4FF0FF3337E01C
:10165000B7F9023019467868FFF71DFF0346FB8192
:101660007B78B7F90E2019467869FEF7B1FD38612D
:101670003B69002B16D1B7F90E20B7F90230D41808
:101680007868FFF738FD03469C420BDA7B685B689D
:101690007B6179787B68B3F908301A467869FEF780
:1016A00097FD38613B69002B08D03A697B69D31AF2
:1016B0009AB27B8813449BB21BB201E04FF0FF3318
:1016C00018461C37BD4690BD80B586B000AFF860A7
:1016D0007A601A460B467B8113463B81B7F9083086
:1016E000002B01D100234FE0F868FFF7BEFC034652
:1016F0001A46B7F90A30D21AB7F908309A4202DA14
:101700006FF0010340E0B7F90A301946F868FFF7B7
:10171000C2FE0346FB82B7F91620B7F908309A4299
:1017200024DAB7F90A301946F868FFF70BFFB7F962
:1017300016301A46796808F017FA03465BB2BB8286
:10174000B7F91430002B02D0B7F914301CE07A89B5
:10175000FB8A13449BB27B81B7F916307A68134435
:101760007B603A89FB8AD31A9BB23B81B7F90A3076
:101770001946F868FFF7E6FEB7F908301A467968A7
:1017800008F0F2F903465BB218461837BD4680BD33
:1017900090B583B000AF78607B685B7C002B30D164
:1017A0007868FFF753FE03461A467B68DA817B6848
:1017B000B3F90E30002B24DD7B6801225A747B685C
:1017C0001B68DB6B002B0ED07B681C687868FFF70A
:1017D000A9FE01467B68B3F90E309BB21A4620463B
:1017E00005F00CF90DE07B681C687868FFF79AFE3D
:1017F00001467B68B3F90E309BB21A46204605F0CD
:101800005CF800BF0C37BD4690BD80B582B000AF1C
:1018100078607B685B7C002B0CD07B6800225A745C
:101820007B68B3F90E3019467868FFF7A2FD786837
:10183000FFF7AEFF00BF0837BD4680BD90B583B04F
:1018400000AF78607B689B7C002B30D17868FFF715
:10185000D8FD03461A467B68DA817B68B3F90E30FF
:10186000002B24DD7B6801229A747B681B689B6BCC
:10187000002B0ED07B681C687868FFF743FE01469A
:101880007B68B3F90E309BB21A46204605F03AF851
:101890000DE07B681C687868FFF734FE01467B68C2
:1018A000B3F90E309BB21A46204604F0D0FF00BFB9
:1018B0000C37BD4690BD80B582B000AF78607B68C4
:1018C0009B7C002B0CD07B6800229A747B68B3F958
:1018D0000E3019467868FFF770FD7868FFF7AEFFA5
:1018E00000BF0837BD4680BD80B483B000AF7860CC
:1018F0007B6800225A747B6800229A747B680022FD
:101900005A817B6800221A817B6800221A747B68E6
:101910000022DA8100BF0C37BD465DF8047B7047BA
:1019200080B582B000AF01F0FDFF00F0DFF800F0FD
:10193000EFFA00F0A7FA00F037F900F097F900F09D
:101940004DFA00F075FA002006F08CFD5449002095
:1019500000F014FD40F6B83002F056F8042151486A
:1019600004F064F808214F4804F060F80C214D4859
:1019700004F05CF84C4805F03AF9C82002F044F84D
:101980004A494B4801F068FB00F056FB494A4A4976
:101990004A4801F071F802F02BF87860202148489D
:1019A00003F012FB0346002B0ED1464B1B687A68EE
:1019B000D31AC82B08D9002006F0D4FC424B0122D0
:1019C0001A70404A7B68136010213D4803F0FCFA0E
:1019D0000346002B15D13D4B1B687A68D31AC82BE0
:1019E0000FD93B4B1B78002B0CBF01230023DBB22C
:1019F0001A46374B1A70344B00221A70334A7B68F0
:101A00001360314B1B78002B48D1314B1A78314B86
:101A10001B789A421FD0002006F0A4FC2C4B1B78A8
:101A2000002B0CD02C49002000F0A8FC4FF4FA60E9
:101A300001F0EAFF2949002000F0A0FC07E0284956
:101A4000002000F09BFC4FF4FA6001F0DDFF204B1A
:101A50001A78204B1A701E4B1B78012B08D117489F
:101A600001F032F800F0F8FC4FF4FA7001F0CCFF0E
:101A7000174B1B78002B8ED100F08AFB00F008FB7F
:101A8000184B1B78002B04D1174B1B88184600F00D
:101A9000C1FB4FF4FA7001F0B7FF7CE700BF7AE7B3
:101AA000C8D20008700200200003002010D50008F2
:101AB00000D5000804090020F0060020180B0020C3
:101AC00000100240D8040020D1040020D4040020DB
:101AD000D004002000000020ECD2000800D3000851
:101AE00014D30008CC040020C804002080B594B0B2
:101AF00000AF07F1200330220021184608F044F817
:101B000007F10C0300221A605A609A60DA601A61C9
:101B10000023BB60224B1B6C214A43F080531364AB
:101B20001F4B1B6C03F08053BB60BB6800237B60C2
:101B30001C4B1B681B4A43F480431360194B1B6802
:101B400003F480437B607B6802233B620123FB62DA
:101B500010233B630023BB6307F12003184603F007
:101B600065FA0346002B01D001F046FB0F23FB6012
:101B700000233B6100237B610023BB610023FB61E9
:101B800007F10C030021184603F0C8FC0346002BA4
:101B900001D001F031FB00BF5037BD4680BD00BF12
:101BA000003802400070004080B584B000AF3B4672
:101BB00000221A605A609A60DA60294B294A1A603A
:101BC000274B00225A60264B00229A60244B0122A8
:101BD0001A61234B01221A76214B002283F8202020
:101BE0001F4B0022DA621E4B1F4A9A621C4B0022D6
:101BF000DA601B4B0222DA61194B002283F8302095
:101C0000174B01225A61164801F022FF0346002BB0
:101C100001D001F0F1FA10233B6001237B60072320
:101C2000BB603B4619460E4802F0F4F80346002B11
:101C300001D001F0E1FA04233B6002237B60012321
:101C4000BB603B461946064802F0E4F80346002B09
:101C500001D001F0D1FA00BF1037BD4680BD00BFF2
:101C600028020020002001400100000F80B596B03E
:101C700000AF07F1480300221A605A609A60DA60E8
:101C800007F1400300221A605A6007F12403002282
:101C90001A605A609A60DA601A615A619A613B1D53
:101CA00020220021184607F06FFF4A4B4A4A1A606B
:101CB000484B0F225A60474B00229A60454B40F632
:101CC000FF72DA60434B00221A61424B00225A61D4
:101CD000404B00229A613F4803F000FE0346002B70
:101CE00001D001F089FA4FF48053BB6407F1480337
:101CF0001946384804F024F80346002B01D001F0BF
:101D00007BFA344803F039FE0346002B01D001F082
:101D100073FA00233B6400237B6407F140031946F8
:101D20002C4804F0EBFB0346002B01D001F064FAD1
:101D300060237B620023BB620023FB6200233B63C2
:101D400000237B630023BB630023FB6307F12403B1
:101D5000042219461F4803F031FF0346002B01D02F
:101D600001F04AFA07F1240308221946194803F042
:101D700025FF0346002B01D001F03EFA07F12403B2
:101D80000C221946134803F019FF0346002B01D01B
:101D900001F032FA00237B600023BB600023FB606C
:101DA00000233B6100237B614FF40053BB610023A0
:101DB0003B623B1D1946074804F01CFC0346002B00
:101DC00001D001F019FA034801F0AAFA00BF583710
:101DD000BD4680BD700200200000014080B500AF0C
:101DE000114B124A1A60104B4FF416525A600E4BA8
:101DF00000229A600C4B0022DA600B4B00221A6121
:101E0000094B0C225A61084B00229A61064B0022B2
:101E1000DA61054804F040FC0346002B01D001F0D4
:101E2000EBF900BF80BD00BFB802002000100140E8
:101E300080B500AF114B124A1A60104B4FF4165286
:101E40005A600E4B00229A600C4B0022DA600B4B5A
:101E500000221A61094B0C225A61084B00229A6138
:101E6000064B0022DA61054804F016FC0346002BFD
:101E700001D001F0C1F900BF80BD00BF0003002008
:101E80000048004080B582B000AF00237B601F4B4C
:101E90001B6B1E4A43F4001313631C4B1B6B03F4B0
:101EA00000137B607B6800233B60184B1B6B174A59
:101EB00043F480031363154B1B6B03F480033B60F7
:101EC0003B68002200210C2002F09DFA0C2002F059
:101ED000B6FA002200210E2002F095FA0E2002F040
:101EE000AEFA002200213A2002F08DFA3A2002F0E8
:101EF000A6FA00220021462002F085FA462002F0D0
:101F00009EFA00BF0837BD4680BD00BF00380240C2
:101F100080B58AB000AF07F1140300221A605A603E
:101F20009A60DA601A6100233B613F4B1B6B3E4AAB
:101F300043F0100313633C4B1B6B03F010033B6136
:101F40003B690023FB60384B1B6B374A43F00403AB
:101F50001363354B1B6B03F00403FB60FB6800232A
:101F6000BB60314B1B6B304A43F0010313632E4BB4
:101F70001B6B03F00103BB60BB6800237B602A4B33
:101F80001B6B294A43F002031363274B1B6B03F0BF
:101F900002037B607B6800233B60234B1B6B224A60
:101FA00043F008031363204B1B6B03F008033B60F3
:101FB0003B6801224FF460411C4803F01DF80022E9
:101FC0004FF680411A4803F017F830237B61002355
:101FD000BB610023FB6107F114031946154802F0A9
:101FE00057FE4FF460437B610123BB610023FB611B
:101FF00000233B6207F1140319460C4802F048FE27
:102000004FF680437B610123BB610023FB6100230A
:102010003B6207F114031946054802F039FE00BF80
:102020002837BD4680BD00BF00380240000802408E
:10203000000C02400010024080B500AF4FF4007366
:102040000B4A0C490C48FEF7EBFF4FF400730B4AA8
:102050000B490C48FEF7E4FF4FF400730A4A0849A5
:102060000A48FEF7DDFF0948FFF792FB00BF80BD7D
:10207000F0040020B8020020DC0400200407002047
:1020800000030020F00600201809002004090020A9
:1020900080B483B000AF0C4B1B88FB80FB880B4ADD
:1020A00012889B1A002BB8BF5B42232B05DD084B1F
:1020B00000221A70054AFB88138000BF0C37BD460A
:1020C0005DF8047B704700BFC8040020CE040020E8
:1020D000CC04002080B582B000AF104801F0FCFCB9
:1020E0000023FB710FE064210C4801F0FAFD0B485E
:1020F00001F082FE0246FB7991B2094A22F81310E0
:10210000FB790133FB71FB79012BECD9034801F01A
:10211000B5FD00BF0837BD4680BD00BF28020020C6
:10212000C804002080B485B000AF0346FB80FB8864
:1021300007EE903AF8EE677A9FED117A27EE877AEC
:10214000DFED106AC7EE267AC7ED037AD7ED037A82
:102150009FED0D7A37EEC77ADFED0C6AC7EE267A6F
:10216000B3EE097A77EE877AC7ED027ABB6807EE9D
:10217000903AB0EE670A1437BD465DF8047B7047AD
:102180003333534000F07F455C8F423F0AD7233BF7
:1021900080B588B002AFFFF79DFF1B4B5B881846E8
:1021A000FFF7C0FF87ED050A174B1B887B820020D5
:1021B00006F0D8F801220121002006F013F97B8AED
:1021C0003846124A112107F063FB3B4619460020AE
:1021D00006F0BAFB01220221002006F003F978691B
:1021E000FEF7B2F902460B463846CDE90023084A0D
:1021F000112107F04DFB3B461946002006F0A4FBD9
:1022000000BF1837BD4680BDC804002028D3000891
:1022100030D3000880B485B000AF0346FB80FB8854
:1022200040F2AA22934210D840F6FF73FB81FA884D
:1022300013461B039B1A4F4A82FB0312D211DB1772
:10224000D31ABB8100237B8179E0FB8840F2555291
:10225000934215D8FB88A3F2AB2213461B039B1AAB
:10226000444A82FB0312D211DB179B1A9BB203F67E
:10227000FF73FB8140F6FF73BB8100237B815EE02F
:10228000FB88B3F5006F12D20023FB8140F6FF7389
:10229000BB81FB88A3F2565213461B039B1A354A97
:1022A00082FB0312D211DB17D31A7B8147E0FB8834
:1022B00040F6A922934215D80023FB81FB88A3F5A1
:1022C000006213461B039B1A2A4A82FB0312D21197
:1022D000DB179B1A9BB203F6FF73BB8140F6FF73BB
:1022E0007B812CE0FB8840F65452934212D8FB8845
:1022F000A3F6AA2213461B039B1A1E4A82FB031253
:10230000D211DB17D31AFB810023BB8140F6FF7388
:102310007B8114E040F6FF73FB810023BB81FB88C7
:10232000A3F6555213461B039B1A124A82FB031253
:10233000D211DB179B1A9BB203F6FF737B81FB89DB
:10234000C3F57F630F330C4A12689363BB89C3F5EF
:102350007F630F33084A1268D3637B89C3F57F63B9
:102360000F33054A1268136400BF1437BD465DF889
:10237000047B704701030C30700200200EB480B55E
:102380009FB000AF0346FB7107F188037B6307F141
:1023900038007B6BD7F88420402107F043FBFB79A2
:1023A000184605F0DFFF07F138031846FDF760FF18
:1023B0000346102B0DD8FB7901220121184606F0A7
:1023C00011F807F13802FB791146184606F0BCFAFD
:1023D0003AE007F1200300221A605A609A60DA603E
:1023E0001A7407F10C0300221A605A609A60DA60CE
:1023F0001A7407F1380107F120031022184607F07C
:10240000EAFB07F13803103307F10C0010221946DC
:1024100007F0E1FBFB7901220121184605F0E2FFFC
:1024200007F12002FB791146184606F08DFAFB7978
:1024300001220221184605F0D5FF07F10C02FB79B5
:102440001146184606F080FA00BF7C37BD46BDE84D
:10245000804003B07047000080B5CAB002AF0023CF
:1024600087F81731624B1B78002B00F08882604898
:1024700000F0D9FCC7F8100103225E49D7F810011B
:1024800007F097FB0346002B40F01681012387F8E5
:102490001731D7F810310333C7F81031D7F810319E
:1024A0001B785F2B40F00881D7F810310133C7F853
:1024B0001031FF2387F80F3103224F49D7F810015D
:1024C00007F077FB0346002B08D1002387F80F3174
:1024D000D7F810310333C7F8103135E005224749EA
:1024E000D7F8100107F065FB0346002B08D1012344
:1024F00087F80F31D7F810310533C7F8103123E0D2
:1025000005223F49D7F8100107F053FB0346002B83
:1025100008D1022387F80F31D7F810310533C7F8F7
:10252000103111E007F581731946D7F8100100F05A
:10253000FCFC034687F80F31B7F902311A46D7F889
:1025400010311344C7F81031D7F8100100F06BFCBC
:10255000C7F8100102222B49D7F8100107F029FB18
:102560000346002B03D1012387F80E3114E0032228
:102570002549D7F8100107F01CFB0346002B03D1B7
:10258000002387F80E3107E00021D7F8100100F092
:10259000CCFC034687F80E3197F80F31002B03D19E
:1025A000154BC7F81C3112E097F80F31012B03D1FE
:1025B000124BC7F81C310AE097F80F31022B03D1F8
:1025C0000F4BC7F81C3102E0104BC7F81C3197F8CD
:1025D0000E31012B03D10B4BC7F818311BE097F8D4
:1025E0000E31002B14D1084BC7F8183113E000BF8F
:1025F000380B00203CD3000840D3000844D3000827
:102600004CD3000854D3000858D300085CD300080A
:10261000DE4BC7F81831DE490020FFF7AFFE4FF45C
:10262000FA6001F0F1F9DB490020FFF7A7FEDA4B71
:102630004FF480410022184602F0DEFC40F6B8302C
:1026400001F0E2F9D7F81831D7F81C21D34900205E
:10265000FFF794FED04B4FF480410122184602F060
:10266000CBFCCD4B4FF400410022184602F0C4FCD5
:1026700040F6B83001F0C8F9C74B4FF400410122D1
:10268000184602F0B9FC97F80F31022B14D897F8CE
:102690000F31C34A52F8330097F80F31C04ADB00BC
:1026A0001344998897F80E31002B0CBF01230023A7
:1026B000DBB21A4602F0A0FC0322BA49D7F8100197
:1026C00007F077FA0346002B40F09B80012387F840
:1026D0001731D7F810310333C7F81031D7F810018C
:1026E00000F0A1FBC7F8100107F580731946D7F871
:1026F000100100F01AFC0346A7F80C31B7F90031BD
:102700001A46D7F810311344C7F81031D7F8100122
:1027100000F089FBC7F8100107F580731946D7F858
:10272000100100F002FC0346A7F80A31B7F90031A6
:102730001A46D7F810311344C7F81031D7F81001F2
:1027400000F071FBC7F8100107F580731946D7F840
:10275000100100F0EAFB0346A7F80831B7F9003191
:102760001A46D7F810311344C7F810318E4B0122A6
:102770001A7087490020FFF701FE4FF4FA6001F05C
:1027800043F984490020FFF7F9FD834B4FF4804162
:102790000022184602F030FC40F6B83001F034F95F
:1027A000B7F80C21B7F80A11B7F8083100930B46B7
:1027B0007E490020FFF7E2FD774B4FF48041012274
:1027C000184602F019FC744B4FF4004100221846E1
:1027D00002F012FC40F6B83001F016F96E4B4FF4DF
:1027E00000410122184602F007FCB7F80C31DBB2B9
:1027F000B7F80A21D1B2B7F80821D2B2184600F0D2
:10280000EFF804226A49D7F8100107F0D2F903461D
:10281000002B6AD1012387F81731FFF75BFC654B6A
:102820005B881846FFF77EFC87ED410A4FF4FA708B
:1028300001F0EAF8D7F80401FDF786FE02460B46E0
:102840003846CDE900235C4A802107F021F8504941
:102850000020FFF793FD4FF4FA6001F0D5F84D49E1
:102860000020FFF78BFD4C4B4FF4804100221846AF
:1028700002F0C2FB40F6B83001F0C6F84F49002024
:10288000FFF77CFD444B4FF480410122184602F0D3
:10289000B3FB414B4FF400410022184602F0ACFB61
:1028A0004FF4FA6001F0B0F8454804F0A0F94FF495
:1028B0007A7001F0A9F83B461946424800F0CCFB7B
:1028C000FFF7BAFB4FF4FA6001F09EF83E49002092
:1028D000FFF754FD40F6B83001F096F82E4B4FF458
:1028E00000410122184602F087FB97F81731002BB0
:1028F00045D13846354B364A4FF4807106F0C8FF53
:102900003B461846FDF7B4FC03469AB23B461946CF
:10291000304803F0F7FF1E490020FFF72FFD4FF46A
:10292000FA6001F071F81B490020FFF727FD1A4BF0
:102930004FF480410022184602F05EFB40F6B830AA
:1029400001F062F8144B4FF480410122184602F066
:1029500053FB114B4FF400510022184602F04CFB80
:102960001D490020FFF70AFD40F6B83001F04CF891
:10297000094B4FF400510122184602F03DFB134B66
:1029800000221A7000BF07F5907727E05CD300089B
:1029900064D3000878D30008000802408CD30008F4
:1029A000E8D40008A8D30008CC040020ACD3000869
:1029B000CCD30008C8040020D4D30008ECD300080E
:1029C00000030020240B002000D40008380B002056
:1029D00010D40008B80200201CD40008BD4680BDF9
:1029E00080B485B000AF0346FB710B46BB71134644
:1029F0007B71FA7913461B039B1A1D4A82FB031253
:102A00001A44D211DB17D31AFB81BA7913461B0380
:102A10009B1A174A82FB03121A44D211DB17D31AEE
:102A2000BB817A7913461B039B1A114A82FB03125E
:102A30001A44D211DB17D31A7B817B89C3F57F63DC
:102A40000F330C4A12689363FB89C3F57F630F331E
:102A5000084A1268D363BB89C3F57F630F33054A05
:102A60001268136400BF1437BD465DF8047B7047DD
:102A7000818080807002002080B485B000AFF86053
:102A8000B9607A60FB6800221A72FB6800225A72F1
:102A9000FB68BA685A60FB687A681A60FA68937AC9
:102AA00023F002039372FA68937A23F0040393727B
:102AB000FA68937A23F00103937200BF1437BD467E
:102AC0005DF8047B7047000080B5B2B000AF78605D
:102AD0007B681B7A002B71D17B689B7A03F008031B
:102AE000DBB2002B6AD17B685B7A042B66D801A22B
:102AF00052F823F0092B00082D2B0008512B000859
:102B0000752B0008992B0008A649786800F072F927
:102B1000A54806F0B5FE7A68937A43F008039372ED
:102B20007A68937A43F00403937247E09F49786888
:102B300000F060F99E4806F0A3FE7A68937A43F0AD
:102B4000080393727A68937A43F00403937235E032
:102B50009849786800F04EF9974806F091FE7A6837
:102B6000937A43F0080393727A68937A43F00403EC
:102B7000937223E09149786800F03CF9904806F0A0
:102B80007FFE7A68937A43F0080393727A68937AA7
:102B900043F00403937211E08A49786800F02AF93F
:102BA000894806F06DFE7A68937A43F008039372C1
:102BB0007A68937A43F00403937200BF7B681B68C2
:102BC0001846FEF798FA0346A7F8C630B7F9C6309C
:102BD000002B40F3E2807B689B7A03F00103DBB2B9
:102BE000002B40F0DA807B681B6802227749184688
:102BF000FEF7D3FC0346A7F8C430B7F9C430002B66
:102C0000C0F2CB80B7F8C43002339BB2A7F8C4300F
:102C10007B681B68B7F9C42007F10C011846FEF762
:102C200048FBB7F9C430C8333B44002203F8BC2C3E
:102C30007B689B7A03F00203DBB2002B0BD007F119
:102C40000C031946624807F066F87A68937A23F015
:102C500002039372A1E007F10C03C7F8C030D7F864
:102C6000C00000F0E0F8C7F8C00002225949D7F8C8
:102C7000C00006F09EFF0346002B00F08E807B68AC
:102C80009B7A03F00403DBB2002B68D00222524986
:102C9000D7F8C00006F08DFF0346002B35D17B68C6
:102CA0001B7A002B79D17A68937A23F00803937208
:102CB0007A68937A23F0040393727B685B7A042B1F
:102CC0006BD801A252F823F0DD2C0008E52C000897
:102CD000ED2C0008F52C0008FD2C00087B68012273
:102CE0005A725AE07B6802225A7256E07B680322CD
:102CF0005A7252E07B6804225A724EE07B680022CE
:102D00005A727B6801221A7247E005223349D7F8CC
:102D1000C00006F04EFF0346002B0ED17B681B7AE5
:102D2000002B3AD17A68937A23F0080393727A6879
:102D3000937A23F0040393722FE00B222849D7F8EB
:102D4000C00006F036FF0346002B26D00B22254993
:102D5000D7F8C00006F02DFF0346002B1DE0D7F882
:102D6000C0301B782B2B18D105221F49D7F8C00083
:102D700006F01FFF0346002B0FD11C4806F080FD14
:102D8000012322221A49D7F8C00000F08FF87A6890
:102D9000937A43F002039372FFE700BFC837BD4642
:102DA00080BD00BF2CD4000834D4000840D40008F3
:102DB00048D4000858D4000864D4000874D400082B
:102DC0008CD40008A0D40008B0D40008040000206F
:102DD000380B0020080000202400002028000020DC
:102DE0000C0000201800002030000020C4D400088F
:102DF000240B002090B583B000AF786039607B6809
:102E00005C683868FDF734FA03461A46396820468C
:102E1000FEF7EFF97B685B681846FEF70FFD00BF11
:102E20000C37BD4690BD80B483B000AF786002E03F
:102E30007B6801337B607B681B78002B03D07B6849
:102E40001B78202BF4D97B6818460C37BD465DF8FB
:102E5000047B704780B582B000AF78600B46FB7092
:102E600013463B807B681B78FA789A420ED1B7F9FB
:102E700000309BB2013B9BB23B8007E07B68013393
:102E8000FA781146184606F087FE78607B68002BBA
:102E900007D0B7F900309AB2013A92B23A80002BCB
:102EA000ECDC7B6818460837BD4680BD80B588B02D
:102EB00000AFF860B96011461A460B46FB71134625
:102EC000BB80B7F90420FB791946F868FFF7C2FF09
:102ED000B861BB69002B23D0BB690133BB61FB79AF
:102EE0001946B86906F058FEF861FB69002B06D157
:102EF0004FF480720021B869FDF76AF9F861FA6948
:102F0000BB69D31A7B617B691A46B969B86806F058
:102F100062FE7B69BA68134400221A70BB6800E045
:102F2000002318462037BD4680BD80B485B000AF71
:102F3000786039600023FB607B68BB6014E07B68CD
:102F40001B78392B14D87B681B782F2B10D9FA6883
:102F500013469B0013445B0019467B685A1C7A6039
:102F60001B780B44303BFB607B681B78002BE6D161
:102F70003B68002B05D07A68BB68D31A1AB23B684D
:102F80001A80FB6818461437BD465DF8047B70470D
:102F900080B582B000AF78607B681B68084A9342B6
:102FA00006D0084A934207D10748FEF784FC03E0A5
:102FB0000648FEF780FC00BF00BF0837BD4680BD55
:102FC0000048004000100140DC040020F006002012
:102FD00080B582B000AF78607B681B68074A934277
:102FE00003D0074A934204D103E00648FEF70DFCE4
:102FF00000BF00BF0837BD4680BD00BF004800408D
:10300000001001400409002080B582B000AF786054
:103010007B681B680B4A934206D00B4A93420DD142
:103020000A48FEF761FC09E00948FEF75DFC094823
:10303000FEF75AFC0648FEF7ABFB00BF00BF08379F
:10304000BD4680BD0048004000100140DC04002067
:1030500004090020F006002080B582B000AF78603F
:1030600039601C4800F07CF8FA2000F0CDFC1948CB
:1030700000F076F800F038F80346002B26D1164809
:1030800000F06EF800F030F80346002B1ED1134814
:1030900000F066F800F028F80346002B16D110481F
:1030A00000F05EF800F020F80346002B0ED179689E
:1030B0000C4800F06BF8322000F0A6FC386800F0F5
:1030C0004FF81A2000F086F800F00EF800BF08371D
:1030D000BD4680BD2CD4000840D4000858D4000858
:1030E00074D40008D4D4000880B594B002AF07F1BE
:1030F000080340220021184606F046FD0023FB800D
:10310000BB1D07F108014FF47A7200924022124869
:1031100003F099FCFB88002B15D0FB8848333B4417
:10312000002203F8402C07F108030C49184606F06A
:1031300065FD0346002B01D0002309E0322000F09A
:1031400063FC012304E0322000F05EFC4FF0FF330B
:1031500018464837BD4680BD00030020E4D400086F
:1031600080B584B000AF78607868FDF781F80346D9
:10317000FB81FB890133FA897968034803F0DCFAA3
:1031800000BF1037BD4680BD000300200FB480B5DE
:10319000A2B000AF07F194033B60381D3B68D7F83D
:1031A0009020802106F03EFC0346C7F88430D7F813
:1031B00084309AB2D7F884300133391D044803F0C3
:1031C000BBFA00BF8837BD46BDE8804004B07047F9
:1031D0000003002080B582B000AF0346FB71F91DEB
:1031E00001230122034803F0A7FA00BF0837BD46B8
:1031F00080BD00BF0003002080B400AF72B600BFE6
:1032000000BFFDE780B483B000AF00237B60104BAC
:103210005B6C0F4A43F4804353640D4B5B6C03F4C7
:1032200080437B607B6800233B60094B1B6C084A32
:1032300043F080531364064B1B6C03F080533B60D8
:103240003B6800BF0C37BD465DF8047B704700BF8C
:103250000038024080B58AB000AF786007F11403EF
:1032600000221A605A609A60DA601A617B681B68F3
:10327000174A934227D100233B61164B5B6C154ADA
:1032800043F480735364134B5B6C03F480733B61B2
:103290003B690023FB600F4B1B6B0E4A43F001039D
:1032A00013630C4B1B6B03F00103FB60FB681023E3
:1032B0007B610323BB610023FB6107F11403194603
:1032C000054801F0E5FC00BF2837BD4680BD00BFC2
:1032D00000200140003802400000024080B485B068
:1032E00000AF78607B681B680B4A93420DD10023C6
:1032F000FB600A4B5B6C094A43F001035364074BC4
:103300005B6C03F00103FB60FB6800BF1437BD4634
:103310005DF8047B704700BF0000014000380240A8
:1033200080B588B000AF786007F10C0300221A6006
:103330005A609A60DA601A617B681B68124A93428D
:103340001ED10023BB60114B1B6B104A43F01003CE
:1033500013630E4B1B6B03F01003BB60BB684FF491
:10336000D043FB6002233B6100237B610023BB61F0
:103370000123FB6107F10C031946054801F088FCA5
:1033800000BF2037BD4680BD00000140003802402C
:103390000010024080B58CB000AF786007F11C03CC
:1033A00000221A605A609A60DA601A617B681B68B2
:1033B000984A934240F092800023BB61964B5B6C2D
:1033C000954A43F010035364934B5B6C03F0100376
:1033D000BB61BB6900237B618F4B1B6B8E4A43F043
:1033E000010313638C4B1B6B03F001037B617B694F
:1033F0004FF4C063FB6102233B6200237B62032323
:10340000BB620723FB6207F11C031946834801F0E6
:103410003FFC834B834A1A60814B4FF000625A6035
:103420007F4B00229A607E4B0022DA607C4B4FF487
:1034300080621A617A4B00225A61794B00229A61AC
:10344000774B0022DA61764B00221A62744B00221D
:103450005A62734801F00EF80346002B01D0FFF7C3
:10346000CBFE7B686E4ADA636D4A7B6893636E4B72
:103470006E4A1A606C4B4FF000625A606A4B4022F1
:103480009A60694B0022DA60674B4FF480621A61E0
:10349000654B00225A61644B00229A61624B002204
:1034A000DA61614B00221A625F4B00225A625E4869
:1034B00000F0E0FF0346002B01D0FFF79DFE7B6884
:1034C000594A9A63584A7B68936300220021252059
:1034D00000F099FF252000F0B2FF96E07B681B68A2
:1034E000534A934240F0918000233B614A4B1B6C4E
:1034F000494A43F480231364474B1B6C03F4802335
:103500003B613B690023FB60434B1B6B424A43F02A
:1035100002031363404B1B6B03F00203FB60FB6869
:103520004FF44063FB6102233B6200237B62032371
:10353000BB620723FB6207F11C0319463D4801F0FB
:10354000A7FB3D4B3D4A1A603B4B4FF000625A606F
:10355000394B00229A60384B0022DA60364B4FF428
:1035600080621A61344B00225A61334B00229A6107
:10357000314B0022DA61304B00221A622E4B0022BE
:103580005A622D4800F076FF0346002B01D0FFF76A
:1035900033FE7B68284ADA63274A7B689363284BAB
:1035A000284A1A60264B4FF000625A60244B402292
:1035B0009A60234B0022DA60214B4FF480621A613B
:1035C0001F4B00225A611E4B00229A611C4B0022A5
:1035D000DA611B4B00221A62194B00225A6218480A
:1035E00000F048FF0346002B01D0FFF705FE7B6883
:1035F000134A9A63124A7B689363002200212720B2
:1036000000F001FF272000F01AFF00BF3037BD4651
:1036100080BD00BF001001400038024000000240A1
:103620004803002040640240A8030020B864024020
:1036300000480040000402400804002028600240C6
:10364000680400205860024080B400AF00BFFDE76E
:1036500080B400AF00BFFDE780B400AF00BFFDE75E
:1036600080B400AF00BFFDE780B400AF00BFFDE74E
:1036700080B400AF00BFBD465DF8047B704780B4E6
:1036800000AF00BFBD465DF8047B704780B400AF5B
:1036900000BFBD465DF8047B704780B500AF00F009
:1036A00093F900BF80BD000080B500AF024801F073
:1036B00079F800BF80BD00BF0804002080B500AFCE
:1036C000024801F06FF800BF80BD00BF6804002011
:1036D00080B500AF024803F02DFB00BF80BD00BFE6
:1036E000B802002080B500AF024803F023FB00BF02
:1036F00080BD00BF0003002080B500AF024801F08C
:1037000051F800BF80BD00BF4803002080B500AF66
:10371000024801F047F800BF80BD00BFA8030020A9
:1037200080B400AF01231846BD465DF8047B7047A6
:1037300080B582B000AF7860396006F0BFFA03460A
:1037400016221A604FF0FF3318460837BD4680BD79
:1037500080B582B000AF78604FF0FF317868FFF736
:10376000E7FF00BFFDE780B586B000AFF860B96045
:103770007A6000237B610AE0AFF300800146BB68FA
:103780005A1CBA60CAB21A707B6901337B617A69CC
:103790007B689A42F0DB7B6818461837BD4680BDCF
:1037A00080B586B000AFF860B9607A6000237B61B5
:1037B00009E0BB685A1CBA601B781846AFF300805A
:1037C0007B6901337B617A697B689A42F1DB7B68B4
:1037D00018461837BD4680BD80B483B000AF78600E
:1037E0004FF0FF3318460C37BD465DF8047B704739
:1037F00080B483B000AF786039603B684FF400520A
:103800005A60002318460C37BD465DF8047B7047AC
:1038100080B483B000AF7860012318460C37BD46F2
:103820005DF8047B704780B485B000AFF860B96084
:103830007A60002318461437BD465DF8047B704754
:1038400080B586B000AF7860144A154BD31A7B61FF
:103850007B693B61134B1B68002B02D1114B124A51
:103860001A60104B1A687B6813443A699A4207D26F
:1038700006F024FA03460C221A604FF0FF3309E0E9
:10388000084B1B68FB60074B1A687B681344054AAA
:103890001360FB6818461837BD4680BD0000022043
:1038A00000040000D00B0020280D002080B400AFE1
:1038B000064BD3F88830054A43F47003C2F88830C9
:1038C00000BFBD465DF8047B704700BF00ED00E01F
:1038D000DFF834D0FFF7EAFF0C480D490D4A00230A
:1038E00002E0D458C4500433C4188C42F9D30A4AB5
:1038F0000A4C002301E013600432A242FBD306F01D
:10390000E3F9FEF70DF870470000022000000020E8
:103910000C020020ACD900080C020020240D00206D
:10392000FEE7000080B500AF0E4B1B680D4A43F464
:10393000007313600B4B1B680A4A43F480631360E7
:10394000084B1B68074A43F480731360032000F0A0
:103950004FFD002000F008F8FFF754FC0023184644
:1039600080BD00BF003C024080B582B000AF7860EF
:10397000124B1A68124B1B7819464FF47A73B3FB3B
:10398000F1F3B2FBF3F3184600F067FD0346002B9A
:1039900001D001230EE07B680F2B0AD80022796842
:1039A0004FF0FF3000F02FFD064A7B6813600023C4
:1039B00000E0012318460837BD4680BD38000020CE
:1039C000400000203C00002080B400AF064B1B7874
:1039D0001A46064B1B681344044A136000BFBD46D9
:1039E0005DF8047B704700BF40000020D40B00202E
:1039F00080B400AF034B1B681846BD465DF8047BDE
:103A0000704700BFD40B002080B584B000AF786051
:103A1000FFF7EEFFB8607B68FB60FB68B3F1FF3F28
:103A200005D00A4B1B781A46FB681344FB6000BFA5
:103A3000FFF7DEFF0246BB68D31AFA689A42F7D84E
:103A400000BF00BF1037BD4680BD00BF4000002052
:103A500080B584B000AF78600023FB737B68002BD7
:103A600001D1012333E07B681B6C002B09D17868FE
:103A7000FFF7F0FB7B6800225A647B68002283F822
:103A80003C207B681B6C03F01003002B18D17B6873
:103A90001B6C23F4885323F0020343F002027B687B
:103AA0001A64786800F0D8FA7B6800225A647B6850
:103AB0001B6C23F0030343F001027B681A6401E0EE
:103AC0000123FB737B68002283F83C20FB7B1846B4
:103AD0001037BD4680BD000080B485B000AF78606F
:103AE0000023BB607B6893F83C30012B01D102239B
:103AF000B2E07B68012283F83C207B681B689B68EE
:103B000003F00103012B18D07B681B689A687B685F
:103B10001B6842F001029A60524B1B68524AA2FB9A
:103B200003239A0C13465B001344BB6002E0BB689E
:103B3000013BBB60BB68002BF9D17B681B689B68AD
:103B400003F00103012B7AD17B681B6C23F4E06343
:103B500023F0010343F480727B681A647B681B685E
:103B60005B6803F48063002B07D07B681B6C23F435
:103B7000405343F480527B681A647B681B6C03F4E7
:103B80008053B3F5805F06D17B685B6C23F006023F
:103B90007B685A6402E07B6800225A647B680022DA
:103BA00083F83C20314BFB607B681B686FF022027E
:103BB0001A60FB685B6803F01F03002B2AD17B6847
:103BC0001B682B4A934215D07B681B68294A934295
:103BD00005D1264B5B6803F01F03002B0AD07B68DE
:103BE0001B68254A934236D1204B5B6803F01003D3
:103BF000002B30D17B681B689B6803F04053002B7F
:103C000029D17B681B689A687B681B6842F08042F8
:103C10009A6020E07B681B68154A93421BD17B6841
:103C20001B689B6803F04053002B14D17B681B6812
:103C30009A687B681B6842F080429A600BE07B6860
:103C40001B6C43F010027B681A647B685B6C43F06A
:103C500001027B685A64002318461437BD465DF89C
:103C6000047B70473800002083DE1B4300230140A3
:103C700000200140002101400022014080B483B0B7
:103C800000AF78607B6893F83C30012B01D10223B0
:103C900021E07B68012283F83C207B681B689A68DE
:103CA0007B681B6822F001029A607B681B689B6836
:103CB00003F00103002B09D17B681B6C23F48853AC
:103CC00023F0010343F001027B681A647B68002241
:103CD00083F83C20002318460C37BD465DF8047B72
:103CE000704780B584B000AF786039600023FB6016
:103CF0007B681B689B6803F48063B3F5806F13D106
:103D00007B681B689B6803F48073B3F5807F0BD1DD
:103D10007B681B6C43F020027B681A647B6800227E
:103D200083F83C20012363E0FFF762FEF86021E0A6
:103D30003B68B3F1FF3F1DD03B68002B07D0FFF776
:103D400057FE0246FB68D31A3A689A4212D27B6841
:103D50001B681B6803F00203022B0BD07B681B6CF3
:103D600043F004027B681A647B68002283F83C20DD
:103D700003233DE07B681B681B6803F00203022BF2
:103D8000D6D17B681B686FF012021A607B681B6CCF
:103D900043F400727B681A647B681B689B6803F0BD
:103DA0004053002B23D17B681B7E002B1FD17B68E7
:103DB0001B68DB6A03F47003002B06D07B681B686A
:103DC0009B6803F48063002B11D17B681B6C23F488
:103DD00080727B681A647B681B6C03F48053002B31
:103DE00005D17B681B6C43F001027B681A640023D9
:103DF00018461037BD4680BD80B483B000AF7860F0
:103E00007B681B68DB6C18460C37BD465DF8047B8D
:103E10007047000080B485B000AF7860396000233F
:103E2000BB607B6893F83C30012B01D1022305E194
:103E30007B68012283F83C203B681B68092B25D94D
:103E40007B681B68D9683B681B689BB21A4613469F
:103E50005B0013441E3B072202FA03F3DA437B683C
:103E60001B680A40DA607B681B68D9683B689A68FF
:103E70003B681B689BB2184603465B0003441E3B2D
:103E80009A407B681B680A43DA6022E07B681B6803
:103E900019693B681B689BB21A4613465B001344C2
:103EA000072202FA03F3DA437B681B680A401A61AF
:103EB0007B681B6819693B689A683B681B689BB202
:103EC000184603465B0003449A407B681B680A431C
:103ED0001A613B685B68062B24D87B681B68596BAA
:103EE0003B685A6813469B001344053B1F2202FAA5
:103EF00003F3DA437B681B680A405A637B681B68DC
:103F0000596B3B681B689BB218463B685A6813465E
:103F10009B001344053B00FA03F27B681B680A43CD
:103F20005A634CE03B685B680C2B24D87B681B68A9
:103F3000196B3B685A6813469B001344233B1F22AE
:103F400002FA03F3DA437B681B680A401A637B6852
:103F50001B68196B3B681B689BB218463B685A6824
:103F600013469B001344233B00FA03F27B681B6853
:103F70000A431A6323E07B681B68D96A3B685A6866
:103F800013469B001344413B1F2202FA03F3DA431A
:103F90007B681B680A40DA627B681B68D96A3B68E9
:103FA0001B689BB218463B685A6813469B00134433
:103FB000413B00FA03F27B681B680A43DA62224B3A
:103FC000FB607B681B68214A934209D13B681B68F0
:103FD000122B05D1FB685B6843F48002FB685A60D2
:103FE0007B681B68194A934223D13B681B68102BDE
:103FF00003D03B681B68112B1BD1FB685B6843F443
:104000000002FB685A603B681B68102B11D1104BF3
:104010001B68104AA2FB03239A0C13469B0013440F
:104020005B00BB6002E0BB68013BBB60BB68002B70
:10403000F9D17B68002283F83C200023184614370E
:10404000BD465DF8047B704700230140002001401D
:104050003800002083DE1B4380B485B000AF786059
:10406000794BFB60FB685B6823F44032FB685A6065
:10407000FB685A687B685B681A43FB685A607B6818
:104080001B685A687B681B6822F480725A607B68E0
:104090001B6859687B681B691A027B681B680A43A6
:1040A0005A607B681B685A687B681B6822F0407204
:1040B0005A607B681B6859687B689A687B681B68D4
:1040C0000A435A607B681B689A687B681B6822F405
:1040D00000629A607B681B6899687B68DA687B6815
:1040E0001B680A439A607B689B6A584A934222D0B5
:1040F0007B681B689A687B681B6822F070629A6014
:104100007B681B6899687B689A6A7B681B680A43AE
:104110009A607B681B689A687B681B6822F0405233
:104120009A607B681B6899687B68DA6A7B681B68A1
:104130000A439A600FE07B681B689A687B681B687B
:1041400022F070629A607B681B689A687B681B68C3
:1041500022F040529A607B681B689A687B681B68F3
:1041600022F002029A607B681B6899687B681B7E5C
:104170005A007B681B680A439A607B6893F820307A
:10418000002B1BD07B681B685A687B681B6842F455
:1041900000625A607B681B685A687B681B6822F45F
:1041A00060425A607B681B6859687B685B6A013BA8
:1041B0005A037B681B680A435A6007E07B681B68E8
:1041C0005A687B681B6822F400625A607B681B682F
:1041D000DA6A7B681B6822F47002DA627B681B680B
:1041E000D96A7B68DB69013B1A057B681B680A4357
:1041F000DA627B681B689A687B681B6822F400722D
:104200009A607B681B6899687B6893F830305A0223
:104210007B681B680A439A607B681B689A687B68A6
:104220001B6822F480629A607B681B6899687B68CF
:104230005B699A027B681B680A439A6000BF143767
:10424000BD465DF8047B7047002301400100000F6C
:1042500080B485B000AF78607B6803F00703FB6033
:104260000C4BDB68BB60BA684FF6FF031340BB60C2
:10427000FB681A02BB68134343F0BF6343F4003387
:10428000BB60044ABB68D36000BF1437BD465DF80D
:10429000047B704700ED00E080B400AF044BDB68A6
:1042A0001B0A03F007031846BD465DF8047B704700
:1042B00000ED00E080B483B000AF0346FB7197F9D6
:1042C0000730002B0BDBFB7903F01F02074997F93E
:1042D00007305B09012000FA02F241F8232000BFF9
:1042E0000C37BD465DF8047B704700BF00E100E07D
:1042F00080B483B000AF03463960FB7197F9073093
:10430000002B0ADB3B68DAB20C4997F9073012013F
:10431000D2B20B4483F800230AE03B68DAB20849C2
:10432000FB7903F00F03043B1201D2B20B441A765F
:1043300000BF0C37BD465DF8047B704700E100E02C
:1043400000ED00E080B489B000AFF860B9607A6039
:10435000FB6803F00703FB61FB69C3F10703042B50
:1043600028BF0423BB61FB690433062B02D9FB6918
:10437000033B00E000237B614FF0FF32BB6902FA90
:1043800003F3DA43BB681A407B699A404FF0FF3170
:104390007B6901FA03F3D9437B680B40134318464A
:1043A0002437BD465DF8047B7047000080B582B0BD
:1043B00000AF78607B68013BB3F1807F01D30123BC
:1043C0000FE00A4A7B68013B53600F214FF0FF303A
:1043D000FFF78EFF054B00229A60044B07221A60FC
:1043E000002318460837BD4680BD00BF10E000E03E
:1043F00080B582B000AF78607868FFF729FF00BF12
:104400000837BD4680BD80B586B000AF0346B960B1
:104410007A60FB7300237B61FFF73EFF78617A6867
:10442000B9687869FFF78EFF024697F90F30114699
:104430001846FFF75DFF00BF1837BD4680BD80B549
:1044400082B000AF0346FB7197F907301846FFF7BB
:1044500031FF00BF0837BD4680BD80B582B000AFD8
:1044600078607868FFF7A2FF034618460837BD4614
:1044700080BD000080B586B000AF786000237B610E
:10448000FFF7B6FA38617B68002B01D1012399E070
:104490007B68022283F835207B68002283F8342071
:1044A0007B681B681A687B681B6822F001021A602F
:1044B0000FE0FFF79DFA02463B69D31A052B08D996
:1044C0007B6820225A657B68032283F8352003230A
:1044D00078E07B681B681B6803F00103002BE8D1C0
:1044E0007B681B681B687B617A69384B13407B6172
:1044F0007B685A687B689B681A437B68DB681A4351
:104500007B681B691A437B685B691A437B689B69FC
:104510001A437B68DB691A437B681B6A13437A6919
:1045200013437B617B685B6A042B07D17B68DA6A83
:104530007B681B6B13437A6913437B617B681B6841
:104540007A691A607B681B685B697B617B6923F011
:1045500007037B617B685B6A7A6913437B617B68D5
:104560005B6A042B17D17B689B6A7A6913437B6172
:104570007B68DB6A002B0ED0786800F00DFB0346E9
:10458000002B08D07B6840225A657B68012283F8A3
:104590003520012316E07B681B687A695A617868C8
:1045A00000F0C4FA0346FB607B68DB6D3F229A4053
:1045B000FB689A607B6800225A657B68012283F859
:1045C0003520002318461837BD4680BD3F8010F0C7
:1045D00080B586B000AFF860B9607A603B600023B8
:1045E000FB75FB689B6D3B61FB6893F83430012BD6
:1045F00001D1022340E0FB68012283F83420FB68EC
:1046000093F83530DBB2012B2FD1FB68022283F8FF
:104610003520FB6800225A653B687A68B968F868FB
:1046200000F056FAFB68DB6D3F229A403B699A60C6
:10463000FB681B681A68FB681B6842F016021A6068
:10464000FB681B6C002B07D0FB681B681A68FB68B3
:104650001B6842F008021A60FB681B681A68FB6856
:104660001B6842F001021A6005E0FB68002283F833
:1046700034200223FB75FB7D18461837BD4680BDEC
:1046800080B584B000AF78607B689B6DFB60FFF7FE
:10469000AFF9B8607B6893F83530DBB2022B08D0F5
:1046A0007B6880225A657B68002283F834200123CE
:1046B00052E07B681B681A687B681B6822F0160250
:1046C0001A607B681B685A697B681B6822F080024D
:1046D0005A617B681B6C002B03D17B689B6C002BA1
:1046E00007D07B681B681A687B681B6822F0080289
:1046F0001A607B681B681A687B681B6822F00102DD
:104700001A6013E0FFF774F90246BB68D31A052B51
:104710000CD97B6820225A657B68032283F83520F8
:104720007B68002283F83420032315E07B681B6834
:104730001B6803F00103002BE4D17B68DB6D3F2293
:104740009A40FB689A607B68012283F835207B6879
:10475000002283F83420002318461037BD4680BD60
:1047600080B483B000AF78607B6893F83530DBB2FB
:10477000022B04D07B6880225A6501230CE07B6801
:10478000052283F835207B681B681A687B681B68E4
:1047900022F001021A60002318460C37BD465DF86E
:1047A000047B704780B586B000AF78600023BB60A3
:1047B0008E4B1B688E4AA2FB03239B0A7B617B689E
:1047C0009B6D3B613B691B68FB607B68DB6D08226E
:1047D0009A40FB681340002B1AD07B681B681B684B
:1047E00003F00403002B13D07B681B681A687B68F6
:1047F0001B6822F004021A607B68DB6D08229A4075
:104800003B699A607B685B6D43F001027B685A6587
:104810007B68DB6D01229A40FB681340002B12D0AD
:104820007B681B685B6903F08003002B0BD07B68FF
:10483000DB6D01229A403B699A607B685B6D43F0B7
:1048400002027B685A657B68DB6D04229A40FB6834
:104850001340002B12D07B681B681B6803F0020317
:10486000002B0BD07B68DB6D04229A403B699A6079
:104870007B685B6D43F004027B685A657B68DB6D87
:1048800010229A40FB681340002B43D07B681B68C2
:104890001B6803F00803002B3CD07B68DB6D102203
:1048A0009A403B699A607B681B681B6803F480230D
:1048B000002B18D07B681B681B6803F40023002BB7
:1048C00008D17B681B6C002B24D07B681B6C78683C
:1048D00098471FE07B689B6C002B1BD07B689B6C10
:1048E0007868984716E07B681B681B6803F4807340
:1048F000002B07D17B681B681A687B681B6822F055
:1049000008021A607B681B6C002B03D07B681B6C51
:10491000786898477B68DB6D20229A40FB681340DB
:10492000002B00F08F807B681B681B6803F010036E
:10493000002B00F087807B68DB6D20229A403B696A
:104940009A607B6893F83530DBB2052B36D17B68F3
:104950001B681A687B681B6822F016021A607B6865
:104960001B685A697B681B6822F080025A617B6869
:104970001B6C002B03D17B689B6C002B07D07B68E2
:104980001B681A687B681B6822F008021A607B6843
:10499000DB6D3F229A403B699A607B68012283F875
:1049A00035207B68002283F834207B681B6D002B48
:1049B0007ED07B681B6D7868984779E07B681B68C0
:1049C0001B6803F48023002B1DD07B681B681B68C9
:1049D00003F40023002B0DD17B685B6C002B31D0DE
:1049E0007B685B6C786898472CE000BF380000203B
:1049F000B5814E1B7B68DB6B002B23D07B68DB6BA8
:104A0000786898471EE07B681B681B6803F4807316
:104A1000002B0FD17B681B681A687B681B6822F02B
:104A200010021A607B68012283F835207B6800221F
:104A300083F834207B68DB6B002B03D07B68DB6B57
:104A4000786898477B685B6D002B32D07B685B6D24
:104A500003F00103002B22D07B68052283F8352068
:104A60007B681B681A687B681B6822F001021A6069
:104A7000BB680133BB607A699A4207D37B681B68C5
:104A80001B6803F00103002BF2D100E000BF7B683C
:104A9000012283F835207B68002283F834207B686C
:104AA000DB6C002B05D07B68DB6C7868984700E0F6
:104AB00000BF1837BD4680BD80B483B000AF7860BA
:104AC0007B685B6D18460C37BD465DF8047B70470C
:104AD00080B485B000AFF860B9607A603B60FB6875
:104AE0001B681A68FB681B6822F480221A60FB6846
:104AF0001B683A685A60FB689B68402B08D1FB68CA
:104B00001B687A689A60FB681B68BA68DA6007E01D
:104B1000FB681B68BA689A60FB681B687A68DA6091
:104B200000BF1437BD465DF8047B704780B485B084
:104B300000AF78607B681B68DBB2103B144AA2FBB5
:104B400003231B09FB60134AFB6813441B781A46B6
:104B50007B68DA65FB68032B09D97B681B6823F443
:104B60007F7323F003031A1D7B689A6507E07B6857
:104B70001B6823F47F7323F003037A6893657B68D3
:104B80009B6D18461437BD465DF8047B704700BF27
:104B9000ABAAAAAA38D5000880B485B000AF786067
:104BA0000023FB737B689B6ABB607B689B69002B5F
:104BB0001FD1BB68032B56D801A252F823F000BFC7
:104BC000D14B0008E34B0008D14B0008674C0008AC
:104BD0007B68DB6A03F08073002B46D00123FB73F4
:104BE00043E07B68DB6AB3F1C07F40D10123FB73F4
:104BF0003DE07B689B69B3F5005F21D1BB68032B67
:104C000037D801A252F823F0194C00081F4C0008B5
:104C1000194C0008314C00080123FB7330E07B681D
:104C2000DB6A03F08073002B25D00123FB7322E0A5
:104C30007B68DB6AB3F1C07F1FD10123FB731CE0EB
:104C4000BB68022B03D9BB68032B03D018E00123F8
:104C5000FB7315E07B68DB6A03F08073002B0ED0DA
:104C60000123FB730BE000BF0AE000BF08E000BFB8
:104C700006E000BF04E000BF02E000BF00E000BFAC
:104C8000FB7B18461437BD465DF8047B704700BFB8
:104C900080B489B000AF7860396000237B61002365
:104CA0003B610023BB610023FB616BE10122FB69D7
:104CB00002FA03F37B613B681B687A6913403B612E
:104CC0003A697B699A4240F05A813B685B6803F01D
:104CD0000303012B05D03B685B6803F00303022B41
:104CE00030D17B689B68BB61FB695B00032202FAE1
:104CF00003F3DB43BA691340BB613B68DA68FB69C5
:104D00005B0002FA03F3BA691343BB617B68BA69BB
:104D10009A607B685B68BB610122FB6902FA03F35E
:104D2000DB43BA691340BB613B685B681B0903F056
:104D30000102FB6902FA03F3BA691343BB617B68A2
:104D4000BA695A603B685B6803F00303032B17D012
:104D50007B68DB68BB61FB695B00032202FA03F33B
:104D6000DB43BA691340BB613B689A68FB695B002F
:104D700002FA03F3BA691343BB617B68BA69DA606C
:104D80003B685B6803F00303022B23D1FB69DA085D
:104D90007B68083253F82230BB61FB6903F00703DC
:104DA0009B000F2202FA03F3DB43BA691340BB6195
:104DB0003B681A69FB6903F007039B0002FA03F3DF
:104DC000BA691343BB61FB69DA087B680832B969C9
:104DD00043F822107B681B68BB61FB695B00032200
:104DE00002FA03F3DB43BA691340BB613B685B68BB
:104DF00003F00302FB695B0002FA03F3BA69134391
:104E0000BB617B68BA691A603B685B6803F4403336
:104E1000002B00F0B4800023FB60604B5B6C5F4AAA
:104E200043F4804353645D4B5B6C03F48043FB604D
:104E3000FB685B4AFB699B08023352F82330BB6175
:104E4000FB6903F003039B000F2202FA03F3DB4329
:104E5000BA691340BB617B68524A93422BD07B688E
:104E6000514A934225D07B68504A93421FD07B68B9
:104E70004F4A934219D07B684E4A934213D07B68C5
:104E80004D4A93420DD07B684C4A934207D07B68D1
:104E90004B4A934201D107230EE008230CE006237E
:104EA0000AE0052308E0042306E0032304E00223CC
:104EB00002E0012300E00023FA6902F003029200FD
:104EC0009340BA691343BB613549FB699B080233C0
:104ED000BA6941F823203B4B9B68BB613B69DB43CC
:104EE000BA691340BB613B685B6803F48013002B15
:104EF00003D0BA693B691343BB61324ABB69936013
:104F0000304BDB68BB613B69DB43BA691340BB6173
:104F10003B685B6803F40013002B03D0BA693B695C
:104F20001343BB61274ABB69D360264B5B68BB61F7
:104F30003B69DB43BA691340BB613B685B6803F4C0
:104F40000033002B03D0BA693B691343BB611D4A90
:104F5000BB6953601B4B1B68BB613B69DB43BA6990
:104F60001340BB613B685B6803F48033002B03D0C4
:104F7000BA693B691343BB61124ABB691360FB69A1
:104F80000133FB61FB690F2B7FF690AE00BF00BFC2
:104F90002437BD465DF8047B704700BF00380240EF
:104FA00000380140000002400004024000080240B6
:104FB000000C0240001002400014024000180240A1
:104FC000001C0240003C014080B485B000AF786016
:104FD0000B467B807B681A697B881340002B02D0CC
:104FE0000123FB7301E00023FB73FB7B184614379E
:104FF000BD465DF8047B704780B483B000AF786035
:105000000B467B8013467B707B78002B03D07A881D
:105010007B689A6103E07B881A047B689A6100BF11
:105020000C37BD465DF8047B7047000080B586B044
:1050300000AF78607B68002B01D1012367E27B68B9
:105040001B6803F00103002B75D0884B9B6803F0AD
:105050000C03042B0CD0854B9B6803F00C03082B2E
:1050600012D1824B5B6803F48003B3F5800F0BD140
:105070007E4B1B6803F40033002B5BD07B685B68BE
:10508000002B57D1012342E27B685B68B3F5803F78
:1050900006D1764B1B68754A43F4803313601DE0DC
:1050A0007B685B68B3F5A02F0CD1704B1B686F4A0F
:1050B00043F4802313606D4B1B686C4A43F48033C8
:1050C00013600BE0694B1B68684A23F4803313605C
:1050D000664B1B68654A23F4802313607B685B681A
:1050E000002B13D0FEF784FC386108E0FEF780FC4B
:1050F00002463B69D31A642B01D9032307E25B4BB9
:105100001B6803F40033002BF0D014E0FEF770FCB2
:10511000386108E0FEF76CFC02463B69D31A642B49
:1051200001D90323F3E1514B1B6803F40033002B37
:10513000F0D100E000BF7B681B6803F00203002B86
:1051400063D04A4B9B6803F00C03002B0BD0474BFA
:105150009B6803F00C03082B1CD1444B5B6803F4E1
:105160008003002B16D1414B1B6803F00203002B78
:1051700005D07B68DB68012B01D00123C7E13B4BE5
:105180001B6823F0F8027B681B69DB003749134377
:105190000B603AE07B68DB68002B20D0344B0122A7
:1051A0001A60FEF725FC386108E0FEF721FC024694
:1051B0003B69D31A022B01D90323A8E12B4B1B68AF
:1051C00003F00203002BF0D0284B1B6823F0F802F9
:1051D0007B681B69DB00254913430B6015E0244BFA
:1051E00000221A60FEF704FC386108E0FEF700FCBC
:1051F00002463B69D31A022B01D9032387E11B4BDB
:105200001B6803F00203002BF0D17B681B6803F0DE
:105210000803002B36D07B685B69002B16D0154B3A
:1052200001221A60FEF7E4FB386108E0FEF7E0FBBC
:1052300002463B69D31A022B01D9032367E10B4BCA
:105240005B6F03F00203002BF0D01BE0094B002240
:105250001A60FEF7CDFB38610EE0FEF7C9FB02468F
:105260003B69D31A022B07D9032350E100380240CF
:1052700000004742800E4742884B5B6F03F00203F9
:10528000002BEAD17B681B6803F00403002B00F0BD
:1052900097800023FB75814B1B6C03F08053002B20
:1052A0000FD10023BB607D4B1B6C7C4A43F08053C5
:1052B00013647A4B1B6C03F08053BB60BB68012303
:1052C000FB75774B1B6803F48073002B18D1744B6C
:1052D0001B68734A43F480731360FEF789FB3861DF
:1052E00008E0FEF785FB02463B69D31A022B01D981
:1052F00003230CE16A4B1B6803F48073002BF0D08E
:105300007B689B68012B06D1644B1B6F634A43F09B
:10531000010313671CE07B689B68052B0CD15F4B76
:105320001B6F5E4A43F0040313675C4B1B6F5B4AC1
:1053300043F0010313670BE0584B1B6F574A23F0F0
:1053400001031367554B1B6F544A23F00403136783
:105350007B689B68002B15D0FEF74AFB38610AE09A
:10536000FEF746FB02463B69D31A41F2883293426C
:1053700001D90323CBE0494B1B6F03F00203002B41
:10538000EED014E0FEF734FB38610AE0FEF730FBA4
:1053900002463B69D31A41F28832934201D9032372
:1053A000B5E03E4B1B6F03F00203002BEED1FB7DFB
:1053B000012B05D1394B1B6C384A23F08053136401
:1053C0007B689B69002B00F0A180344B9B6803F045
:1053D0000C03082B5CD07B689B69022B41D1314BBD
:1053E00000221A60FEF704FB386108E0FEF700FBBC
:1053F00002463B69D31A022B01D9032387E0274BCE
:105400001B6803F00073002BF0D17B68DA697B68BE
:105410001B6A1A437B685B6A9B011A437B689B6A21
:105420005B08013B1B041A437B68DB6A1B061B49B4
:1054300013434B601B4B01221A60FEF7D9FA386107
:1054400008E0FEF7D5FA02463B69D31A022B01D9D0
:1054500003235CE0114B1B6803F00073002BF0D0BA
:1054600054E0104B00221A60FEF7C2FA386108E0DF
:10547000FEF7BEFA02463B69D31A022B01D9032379
:1054800045E0064B1B6803F00073002BF0D13DE0B4
:105490007B689B69012B07D1012338E0003802406B
:1054A00000700040600047421B4B5B68FB607B68FC
:1054B0009B69012B28D0FB6803F480027B68DB69C1
:1054C0009A4221D1FB6803F03F027B681B6A9A4233
:1054D0001AD1FA6847F6C07313407A68526A92018B
:1054E000934211D1FB6803F440327B689B6A5B08EE
:1054F000013B1B049A4207D1FB6803F070627B6892
:10550000DB6A1B069A4201D0012300E00023184603
:105510001837BD4680BD00BF0038024080B584B05A
:1055200000AF786039607B68002B01D10123CCE0AB
:10553000684B1B6803F007033A689A420CD9654B25
:105540003A68D2B21A70634B1B6803F007033A68DB
:105550009A4201D00123B8E07B681B6803F0020384
:10556000002B20D07B681B6803F00403002B05D0C0
:10557000594B9B68584A43F4E05393607B681B681F
:1055800003F00803002B05D0534B9B68524A43F4A9
:1055900060439360504B9B6823F0F0027B689B68EC
:1055A0004D4913438B607B681B6803F00103002B9C
:1055B00044D07B685B68012B07D1474B1B6803F421
:1055C0000033002B19D101237FE07B685B68022B3D
:1055D00003D07B685B68032B07D13F4B1B6803F04C
:1055E0000073002B09D101236FE03B4B1B6803F0D4
:1055F0000203002B01D1012367E0374B9B6823F0A6
:1056000003027B685B68344913438B60FEF7F0F953
:10561000F8600AE0FEF7ECF90246FB68D31A41F2A3
:105620008832934201D903234FE02B4B9B6803F050
:105630000C027B685B689B009A42EBD1254B1B6890
:1056400003F007033A689A420CD2224B3A68D2B26E
:105650001A70204B1B6803F007033A689A4201D086
:10566000012332E07B681B6803F00403002B08D0A1
:10567000194B9B6823F4E0527B68DB68164913439F
:105680008B607B681B6803F00803002B09D0124B6A
:105690009B6823F460427B681B69DB000E4913435F
:1056A0008B6000F021F802460B4B9B681B0903F04E
:1056B0000F030A49CB5C22FA03F3094A1360094B32
:1056C0001B681846FEF750F9002318461037BD46F0
:1056D00080BD00BF003C02400038024020D50008D9
:1056E000380000203C0000202DE9B04F90B000AF02
:1056F00000237B630023FB6300233B630023BB6326
:10570000594B9B6803F00C03082B0DD0082B00F2BB
:10571000A180002B02D0042B03D09BE0534BBB6332
:105720009BE0534BBB6398E04F4B5B6803F03F0338
:105730007B634D4B5B6803F48003002B28D04A4BFE
:105740005B689B0900223B627A623B6AC3F30800F4
:105750000021474B03FB01F2002300FB03F313443A
:10576000434AA0FB0212FA620A46BA62FA6A13447A
:10577000FB627B6B0022BB61FA61D7E90623D7E9A4
:105780000A01FBF781FA02460B461346FB6353E01E
:10579000354B5B689B0900223B617A613B69C3F32F
:1057A000080A4FF0000B52465B464FF000004FF0E6
:1057B0000001590141EAD261500102460B46B2EBA9
:1057C0000A0863EB0B094FF000024FF000034FEAA9
:1057D000891343EA98634FEA8812B2EB080463EB3B
:1057E00009054FF000024FF00003EB0043EA547349
:1057F000E20014461D4614EB0A033B6045EB0B0325
:105800007B604FF000024FF00003D7E900452946C6
:105810008B02214643EA915321468A0210461946DB
:105820007B6B0022BB60FA60D7E90223FBF72CFAFE
:1058300002460B461346FB630B4B5B681B0C03F0E5
:10584000030301335B003B63FA6B3B6BB2FBF3F387
:10585000BB6302E0054BBB6300BFBB6B1846403720
:10586000BD46BDE8B08F00BF003802400024F40000
:1058700040787D0180B400AF034B1B681846BD46DD
:105880005DF8047B704700BF3800002080B500AF92
:10589000FFF7F0FF0246054B9B689B0A03F00703E6
:1058A0000349CB5C22FA03F3184680BD003802405E
:1058B00030D5000880B500AFFFF7DCFF0246054B8E
:1058C0009B685B0B03F007030349CB5C22FA03F3ED
:1058D000184680BD0038024030D5000880B582B03F
:1058E00000AF78607B68002B01D1012341E07B6829
:1058F00093F83D30DBB2002B06D17B68002283F8A1
:105900003C207868FDF7EAFC7B68022283F83D20A2
:105910007B681A687B6804331946104600F0D8FA91
:105920007B68012283F846207B68012283F83E20B1
:105930007B68012283F83F207B68012283F84020A6
:105940007B68012283F841207B68012283F8422092
:105950007B68012283F843207B68012283F844207E
:105960007B68012283F845207B68012283F83D2073
:10597000002318460837BD4680BD80B582B000AF11
:1059800078607B68002B01D1012341E07B6893F8AC
:105990003D30DBB2002B06D17B68002283F83C202F
:1059A000786800F039F87B68022283F83D207B6834
:1059B0001A687B6804331946104600F089FA7B6840
:1059C000012283F846207B68012283F83E207B6811
:1059D000012283F83F207B68012283F840207B6806
:1059E000012283F841207B68012283F842207B68F2
:1059F000012283F843207B68012283F844207B68DE
:105A0000012283F845207B68012283F83D20002392
:105A100018460837BD4680BD80B483B000AF7860BB
:105A200000BF0C37BD465DF8047B704780B584B07D
:105A300000AF786039603B68002B09D17B6893F830
:105A40003E30DBB2012B14BF01230023DBB222E086
:105A50003B68042B09D17B6893F83F30DBB2012B04
:105A600014BF01230023DBB215E03B68082B09D1EA
:105A70007B6893F84030DBB2012B14BF0123002375
:105A8000DBB208E07B6893F84130DBB2012B14BF36
:105A900001230023DBB2002B01D001237CE03B6813
:105AA000002B04D17B68022283F83E2013E03B6880
:105AB000042B04D17B68022283F83F200BE03B6873
:105AC000082B04D17B68022283F8402003E07B6826
:105AD000022283F841207B681B680122396818463E
