:020000040800F2
:1000000000000220051F0008CD1C0008D51C0008B8
:10001000DD1C0008E51C0008ED1C000800000000C5
:10002000000000000000000000000000F51C0008B7
:10003000031D000800000000111D00081F1D00081E
:10004000551F0008551F0008551F0008551F0008C0
:10005000551F0008551F0008551F0008551F0008B0
:10006000551F0008551F0008551F0008551F0008A0
:10007000551F0008551F0008551F0008551F000890
:10008000551F0008551F0008551F0008551F000880
:10009000551F0008551F0008551F0008551F000870
:1000A000551F0008551F0008551F0008551F000860
:1000B000551F0008551F0008551F0008551F000850
:1000C000551F0008551F0008551F0008551F000840
:1000D000551F00082D1D0008411D0008551F000870
:1000E000551F0008551F0008551F0008551F000820
:1000F000551F0008551F0008551F0008551F000810
:10010000551F0008551F0008551F0008551F0008FF
:10011000551F0008551F0008551F0008551F0008EF
:10012000551F0008551F0008551F0008551F0008DF
:10013000551F0008551F0008551F0008551F0008CF
:10014000551F0008551F0008551F0008551F0008BF
:10015000551F0008551F0008551F0008551F0008AF
:10016000551F0008551F0008551F0008551F00089F
:10017000551F0008551F0008551F0008000000000B
:08018000551F0008551F00087F
:1001900010B5054C237833B9044B13B10448AFF3C1
:1001A00000800123237010BDD40100200000000056
:1001B000F4A6000808B5034B1BB103490348AFF38D
:1001C000008008BD00000000D8010020F4A600084F
:1001D00001F0FF01102A2BDB10F0070F08D010F8F8
:1001E000013B013A8B422DD010F0070F42B3F6D1FC
:1001F000F0B441EA012141EA014122F007047FF015
:1002000000070023F0E80256083C85EA010586EA6B
:10021000010685FA47F5A3FA87F586FA47F6A5FAA7
:1002200087F68EB9EED1F0BC01F0FF0102F00702B3
:1002300032B110F8013B013A83EA010313B1F8D15E
:100240000020704701387047002D06BF354603383F
:10025000073815F0010F07D1013015F4807F02BF78
:10026000013015F4C03F0130F0BC0138704700BFC9
:10027000034613F8012B002AFBD1181A01387047E6
:1002800081F0004102E000BF83F0004330B54FEA47
:1002900041044FEA430594EA050F08BF90EA020FB4
:1002A0001FBF54EA000C55EA020C7FEA645C7FEA47
:1002B000655C00F0E2804FEA5454D4EB5555B8BF6A
:1002C0006D420CDD2C4480EA020281EA030382EADB
:1002D000000083EA010180EA020281EA0303362D6D
:1002E00088BF30BD11F0004F4FEA01314FF4801C40
:1002F0004CEA113102D0404261EB410113F0004F52
:100300004FEA03334CEA133302D0524263EB430308
:1003100094EA050F00F0A780A4F10104D5F1200EA6
:100320000DDB02FA0EFC22FA05F2801841F1000101
:1003300003FA0EF2801843FA05F359410EE0A5F1D5
:1003400020050EF1200E012A03FA0EFC28BF4CF006
:10035000020C43FA05F3C01851EBE37101F00045BC
:1003600007D54FF0000EDCF1000C7EEB00006EEBC9
:100370000101B1F5801F1BD3B1F5001F0CD3490853
:100380005FEA30004FEA3C0C04F101044FEA4452AA
:1003900012F5800F80F09A80BCF1004F08BF5FEA31
:1003A000500C50F1000041EB045141EA050130BD11
:1003B0005FEA4C0C404141EB0101013C28BFB1F523
:1003C000801FE9D291F0000F04BF01460020B1FA6E
:1003D00081F308BF2033A3F10B03B3F120020CDA41
:1003E0000C3208DD02F1140CC2F10C0201FA0CF01F
:1003F00021FA02F10CE002F11402D8BFC2F1200C84
:1004000001FA02F120FA0CFCDCBF41EA0C01904039
:10041000E41AA2BF01EB0451294330BD6FEA040482
:100420001F3C1CDA0C340EDC04F11404C4F120026D
:1004300020FA04F001FA02F340EA030021FA04F37F
:1004400045EA030130BDC4F10C04C4F1200220FAD6
:1004500002F001FA04F340EA0300294630BD21FA14
:1004600004F0294630BD94F0000F83F4801306BFDA
:1004700081F480110134013D4EE77FEA645C18BFCE
:100480007FEA655C29D094EA050F08BF90EA020F65
:1004900005D054EA000C04BF1946104630BD91EA5D
:1004A000030F1EBF0021002030BD5FEA545C05D160
:1004B0004000494128BF41F0004130BD14F580049F
:1004C0003CBF01F5801130BD01F0004545F0FE4113
:1004D00041F470014FF0000030BD7FEA645C1ABF48
:1004E000194610467FEA655C1CBF0B46024650EA7F
:1004F000013406BF52EA033591EA030F41F40021AB
:1005000030BD00BF90F0000F04BF0021704730B530
:100510004FF4806404F132044FF000054FF0000105
:1005200050E700BF90F0000F04BF0021704730B5C6
:100530004FF4806404F1320410F0004548BF40429B
:100540004FF000013EE700BF42004FEAE2014FEAF0
:1005500031014FEA02701FBF12F07F4393F07F4FCB
:1005600081F06051704732F07F4208BF704793F0CE
:100570007F4F04BF41F40021704730B54FF46074E1
:1005800001F0004521F000411CE700BF50EA0102E4
:1005900008BF704730B54FF000050AE050EA01028D
:1005A00008BF704730B511F0004502D5404261EBFD
:1005B00041014FF4806404F132045FEA915C3FF43E
:1005C000D8AE4FF003025FEADC0C18BF03325FEADB
:1005D000DC0C18BF033202EBDC02C2F1200300FA8C
:1005E00003FC20FA02F001FA03FE40EA0E0021FAB1
:1005F00002F11444BDE600BF70B54FF0FF0C4CF49F
:10060000E06C1CEA11541DBF1CEA135594EA0C0F50
:1006100095EA0C0F00F0DEF82C4481EA030621EA8B
:100620004C5123EA4C5350EA013518BF52EA0335C6
:1006300041F4801143F4801338D0A0FB02CE4FF078
:100640000005E1FB02E506F00042E0FB03E54FF0A8
:100650000006E1FB03569CF0000F18BF4EF0010EA0
:10066000A4F1FF04B6F5007F64F5407404D25FEA9C
:100670004E0E6D4146EB060642EAC62141EA55514F
:100680004FEAC52040EA5E504FEACE2EB4F1FD0C91
:1006900088BFBCF5E06F1ED8BEF1004F08BF5FEA0F
:1006A000500E50F1000041EB045170BD06F00046C1
:1006B00046EA010140EA020081EA0301B4EB5C046E
:1006C000C2BFD4EB0C0541EA045170BD41F4801166
:1006D0004FF0000E013C00F3AB8014F1360FDEBF8B
:1006E000002001F0004170BDC4F10004203C35DA67
:1006F0000C341BDC04F11404C4F1200500FA05F3EA
:1007000020FA04F001FA05F240EA020001F000428A
:1007100021F0004110EBD37021FA04F642EB060100
:100720005EEA430E08BF20EAD37070BDC4F10C042A
:10073000C4F1200500FA04F320FA05F001FA04F2EE
:1007400040EA020001F0004110EBD37041F10001DA
:100750005EEA430E08BF20EAD37070BDC4F12005E5
:1007600000FA05F24EEA020E20FA04F301FA05F24D
:1007700043EA020321FA04F001F0004121FA04F2F5
:1007800020EA020000EBD3705EEA430E08BF20EAC5
:10079000D37070BD94F0000F0FD101F000464000FF
:1007A00041EB010111F4801F08BF013CF7D041EA81
:1007B000060195F0000F18BF704703F00046520085
:1007C00043EB030313F4801F08BF013DF7D043EA56
:1007D0000603704794EA0C0F0CEA135518BF95EA0C
:1007E0000C0F0CD050EA410618BF52EA4306D1D193
:1007F00081EA030101F000414FF0000070BD50EAB2
:10080000410606BF1046194652EA430619D094EA3B
:100810000C0F02D150EA013613D195EA0C0F05D125
:1008200052EA03361CBF104619460AD181EA030179
:1008300001F0004141F0FE4141F470014FF0000031
:1008400070BD41F0FE4141F4780170BD70B54FF0CC
:10085000FF0C4CF4E06C1CEA11541DBF1CEA13554C
:1008600094EA0C0F95EA0C0F00F0A7F8A4EB05042E
:1008700081EA030E52EA03354FEA013100F0888025
:100880004FEA03334FF0805545EA131343EA1263EE
:100890004FEA022245EA111545EA10654FEA0026A3
:1008A0000EF000419D4208BF964244F1FD0404F55C
:1008B000407402D25B084FEA3202B61A65EB0305B8
:1008C0005B084FEA32024FF480104FF4002CB6EB75
:1008D000020E75EB030E22BFB61A754640EA0C00F5
:1008E0005B084FEA3202B6EB020E75EB030E22BF35
:1008F000B61A754640EA5C005B084FEA3202B6EB76
:10090000020E75EB030E22BFB61A754640EA9C0034
:100910005B084FEA3202B6EB020E75EB030E22BF04
:10092000B61A754640EADC0055EA060E18D04FEAC2
:10093000051545EA16754FEA06164FEAC30343EA62
:1009400052734FEAC2025FEA1C1CC0D111F4801F2F
:100950000BD141EA00014FF000004FF0004CB6E728
:1009600011F4801F04BF01430020B4F1FD0C88BFC7
:10097000BCF5E06F3FF6AFAEB5EB030C04BFB6EBD2
:10098000020C5FEA500C50F1000041EB045170BDC5
:100990000EF0004E4EEA113114EB5C04C2BFD4EBF2
:1009A0000C0541EA045170BD41F480114FF0000E76
:1009B000013C90E645EA060E8DE60CEA135594EAF2
:1009C0000C0F08BF95EA0C0F3FF43BAF94EA0C0FF5
:1009D0000AD150EA01347FF434AF95EA0C0F7FF46A
:1009E00025AF104619462CE795EA0C0F06D152EABE
:1009F00003353FF4FDAE1046194622E750EA4106A2
:100A000018BF52EA43067FF4C5AE50EA41047FF4B2
:100A10000DAF52EA43057FF4EBAE12E74FF0FF3C17
:100A200006E000BF4FF0010C02E000BF4FF0010CE8
:100A30004DF804CD4FEA410C7FEA6C5C4FEA430C61
:100A400018BF7FEA6C5C1BD001B050EA410C0CBFB0
:100A500052EA430C91EA030F02BF90EA020F002012
:100A6000704710F1000F91EA030F58BF994208BF79
:100A700090422CBFD8176FEAE37040F00100704736
:100A80004FEA410C7FEA6C5C02D150EA013C07D18D
:100A90004FEA430C7FEA6C5CD6D152EA033CD3D0D8
:100AA0005DF8040B704700BF8446104662468C46D2
:100AB0001946634600E000BF01B5FFF7B7FF002805
:100AC00048BF10F1000F01BD4DF808EDFFF7F4FF2E
:100AD0000CBF012000205DF808FB00BF4DF808EDB9
:100AE000FFF7EAFF34BF012000205DF808FB00BFDC
:100AF0004DF808EDFFF7E0FF94BF012000205DF8FE
:100B000008FB00BF4DF808EDFFF7CEFF94BF0120B2
:100B100000205DF808FB00BF4DF808EDFFF7C4FFAB
:100B200034BF012000205DF808FB00BF4FEA410CF4
:100B30007FEA6C5C02D150EA013C0AD14FEA430CD7
:100B40007FEA6C5C02D152EA033C02D14FF0000014
:100B500070474FF0010070474FEA410212F5001252
:100B600015D211D56FF47873B3EB625212D94FEAF4
:100B7000C12343F0004343EA505311F0004F23FADE
:100B800002F018BF404270474FF00000704750EA33
:100B9000013005D111F0004008BF6FF000407047F0
:100BA0004FF00000704700BF4A0011D212F500124A
:100BB00011D20DD56FF47873B3EB62520ED44FEAB5
:100BC000C12343F0004343EA505323FA02F0704735
:100BD0004FF00000704750EA013002D14FF0FF3073
:100BE00070474FF0000070474FEA4102B2F1E04316
:100BF00024BFB3F5001CDCF1FE5C0DD901F0004C04
:100C00004FEAC0024CEA5070B2F1004F40EB830053
:100C100008BF20F00100704711F0804F21D113F17F
:100C20003872BCBF01F00040704741F480114FEAB8
:100C30005252C2F11802C2F1200C10FA0CF320FA41
:100C400002F018BF40F001004FEAC1234FEAD3235E
:100C500003FA0CFC40EA0C0023FA02F34FEA4303C8
:100C6000CCE77FEA625307D150EA01331EBF4FF051
:100C7000FE4040F44000704701F0004040F0FE406C
:100C800040F40000704700BF53B94AB9002908BFBB
:100C900000281CBF4FF0FF314FF0FF3000F0BEB90D
:100CA000ADF1080C6DE904CE00F03CF8DDF804E08D
:100CB000DDE9022304B0704738B500220023044662
:100CC0000D46FFF70BFF28B920462946BDE83840FE
:100CD00000F00AB8204605F1004100F005F8404256
:100CE00061EB410138BD00BFD0B50C4B0022064678
:100CF0000F46FFF781FCFFF757FF0446FFF702FCA2
:100D0000074B0022FFF778FC02460B463046394677
:100D1000FFF7BAFAFFF748FF2146D0BD0000F03DCB
:100D20000000F0412DE9F047089D8E4604468846B4
:100D3000002B4AD18A42174662D9B2FA82F64EB1E6
:100D4000C6F1200301FA06F820FA03F3B74043EA9C
:100D50000808B4404FEA174E1FFA87FCB8FBFEF1B3
:100D6000230C0EFB118843EA084301FB0CF29A4264
:100D700009D9FB1801F1FF3080F0EA809A4240F275
:100D8000E78002393B449A1AA3B2B2FBFEF00EFB95
:100D9000102243EA024300FB0CFC9C4509D9FB18D6
:100DA00000F1FF3280F0D6809C4540F2D3803B4476
:100DB000023840EA0140A3EB0C0300211DB1F340CF
:100DC0000022C5E90032BDE8F0878B4205D90DB19C
:100DD000C5E9000100210846F5E7B3FA83F10029CF
:100DE00046D1734502D3824200F20581841A6EEB2C
:100DF000030201209046002DE5D0C5E90048E2E756
:100E0000002A00F09080B2FA82F6002E40F0A48012
:100E10008A1A030C4FEA174E80B2BCB20121B2FB12
:100E2000FEFC0EFB1C2243EA024304FB0CF29A4236
:100E300007D9FB180CF1FF3802D29A4200F2E08089
:100E4000C4469B1AB3FBFEF20EFB123340EA034387
:100E500002FB04F49C4207D9FB1802F1FF3002D2D6
:100E60009C4200F2CA8002461B1B42EA0C40A5E7E6
:100E7000C1F120068B4022FA06F71F430EFA01F457
:100E800020FA06F32EFA06FE4FEA1749234300FA2A
:100E900001F81FFA87FCBEFBF9F01C0C09FB10EEF1
:100EA00044EA0E4400FB0CFEA64502FA01F209D901
:100EB0003C1900F1FF3A80F09C80A64540F29980F1
:100EC00002383C44A4EB0E041FFA83FEB4FBF9F392
:100ED00009FB13444EEA044403FB0CFCA44508D967
:100EE0003C1903F1FF3E80F08280A4457FD9023B8C
:100EF0003C4443EA0040A4EB0C04A0FB02EC644534
:100F00007346E14662D35FD05DB1B8EB030264EB98
:100F1000090404FA06F622FA01F31E43CC40C5E99F
:100F2000006400214FE7B1FBF2FC010C41EA0E41E5
:100F300080B240EA01423B4638463C46B846BE468F
:100F40002026B1FBF7F1A2EB080241EA0C4166E76B
:100F5000014618E710462CE7C6F120022EFA02F3EC
:100F6000B740B14020FA02F24FEA174E0A43B3FBF2
:100F7000FEF8BCB20EFB1833110C41EA034108FB2A
:100F800004F9B04089454FEA104380B23ED9791840
:100F900008F1FF3C01D289451FD8A1EB0901B1FB43
:100FA000FEF909FB04F80EFB191192B242EA014264
:100FB000424529D2BA1809F1FF31C4D24245C2D202
:100FC000A9F102013A44BEE7F0459DD2BEEB02030F
:100FD0006CEB070C0138E14696E7A7EB0909494499
:100FE000A8F1020CB1FBFEF909FB04F8DBE773463C
:100FF0007FE7504666E70846FDE63B44023A33E7A2
:10100000ACF1020C3B441CE749469CE7A1EB09010B
:10101000C446B1FBFEF909FB04F8C4E7704700BF02
:1010200080B500AF00F098FF00F07AF800F044FAC5
:1010300000F0D4F800F034F900F0EAF900F012FA08
:10104000002004F02BFD002004F0A8FC0122012167
:10105000002004F0E3FC2B49002004F091FF012262
:101060000221002004F0DAFC2749002004F088FF68
:101070004FF4FA6000F0E2FF0421244802F05CFC27
:101080000346002B01D000F0B7FC08211F4802F0F6
:1010900053FC0346002B01D000F0AEFC0C211B4892
:1010A00002F04AFC0346002B01D000F0A5FC00F042
:1010B00039FC01221649174803F04FFB002004F0C9
:1010C0006DFC01220121002004F0A8FC124900203F
:1010D00004F056FF00F070FC002004F05FFC0122D9
:1010E0000121002004F09AFC0C49002004F048FF84
:1010F0004FF47A7000F0A2FF00F072FA00F082FC68
:1011000000BFF9E710A700081CA70008380200205C
:1011100094030020C80200202CA700083CA7000868
:1011200080B594B000AF07F12003302200211846AB
:1011300005F007FF07F10C0300221A605A609A605D
:10114000DA601A610023BB60224B1B6C214A43F01A
:10115000805313641F4B1B6C03F08053BB60BB6850
:1011600000237B601C4B1B681B4A43F480431360C5
:10117000194B1B6803F480437B607B6802233B624E
:101180000123FB6210233B630023BB6307F12003B1
:10119000184601F0D1FE0346002B01D000F02CFCD4
:1011A0000F23FB6000233B6100237B610023BB61B5
:1011B0000023FB6107F10C030021184602F034F90B
:1011C0000346002B01D000F017FC00BF5037BD468E
:1011D00080BD00BF003802400070004080B584B080
:1011E00000AF3B4600221A605A609A60DA60294BD1
:1011F000294A1A60274B00225A60264B00229A6027
:10120000244B01221A61234B01221A76214B002222
:1012100083F820201F4B0022DA621E4B1F4A9A627D
:101220001C4B0022DA601B4B0222DA61194B0022B0
:1012300083F83020174B01225A61164800F022FF34
:101240000346002B01D000F0D7FB10233B600123A5
:101250007B600723BB603B4619460E4801F0F4F85B
:101260000346002B01D000F0C7FB04233B600223A0
:101270007B600123BB603B461946064801F0E4F859
:101280000346002B01D000F0B7FB00BF1037BD466E
:1012900080BD00BFF0010020002001400100000FD0
:1012A00080B596B000AF07F1480300221A605A607B
:1012B0009A60DA6007F1400300221A605A6007F171
:1012C000240300221A605A609A60DA601A615A6137
:1012D0009A613B1D20220021184605F032FE4A4B40
:1012E0004A4A1A60484B0F225A60474B00229A60C4
:1012F000454B40F6FF72DA60434B00221A61424BC5
:1013000000225A61404B00229A613F4802F06CFA79
:101310000346002B01D000F06FFB4FF48053BB64F9
:1013200007F148031946384802F090FC0346002BA9
:1013300001D000F061FB344802F0A5FA0346002B0F
:1013400001D000F059FB00233B6400237B6407F1CC
:10135000400319462C4803F057F80346002B01D0F0
:1013600000F04AFB60237B620023BB620023FB6228
:1013700000233B6300237B630023BB630023FB63E9
:1013800007F12403042219461F4802F09DFB03467F
:10139000002B01D000F030FB07F12403082219468E
:1013A000194802F091FB0346002B01D000F024FB0A
:1013B00007F124030C221946134802F085FB03466B
:1013C000002B01D000F018FB00237B600023BB60E2
:1013D0000023FB6000233B6100237B614FF400533B
:1013E000BB6100233B623B1D1946074803F088F8A8
:1013F0000346002B01D000F0FFFA034800F09EFBEB
:1014000000BF5837BD4680BD3802002000000140B3
:1014100080B500AF114B124A1A60104B4FF41652B0
:101420005A600E4B00229A600C4B0022DA600B4B84
:1014300000221A61094B0C225A61084B00229A6162
:10144000064B0022DA61054803F0ACF80346002B96
:1014500001D000F0D1FA00BF80BD00BF80020020A3
:101460000010014080B500AF114B124A1A60104BBA
:101470004FF416525A600E4B00229A600C4B002219
:10148000DA600B4B00221A61094B0C225A61084B9F
:1014900000229A61064B0022DA61054803F082F8C7
:1014A0000346002B01D000F0A7FA00BF80BD00BFAB
:1014B000C80200200044004080B58AB000AF07F1A8
:1014C000140300221A605A609A60DA601A610023DD
:1014D0003B613F4B1B6B3E4A43F0100313633C4B95
:1014E0001B6B03F010033B613B690023FB60384B2F
:1014F0001B6B374A43F004031363354B1B6B03F03C
:101500000403FB60FB680023BB60314B1B6B304A5C
:1015100043F0010313632E4B1B6B03F00103BB600D
:10152000BB6800237B602A4B1B6B294A43F00803EE
:101530001363274B1B6B03F008037B607B6800235E
:101540003B60234B1B6B224A43F002031363204B87
:101550001B6B03F002033B603B6801224FF46041C8
:101560001C4801F0CFFC00224FF680411A4801F0E0
:10157000C9FC30237B610023BB610023FB6107F1C1
:1015800014031946154801F021FB4FF460437B61B9
:101590000123BB610023FB6100233B6207F11403BD
:1015A00019460C4801F012FB4FF680437B61012382
:1015B000BB610023FB6100233B6207F11403194662
:1015C000054801F003FB00BF2837BD4680BD00BFC2
:1015D0000038024000080240000C024000100240A7
:1015E00080B582B000AF00F01DFD7860264B1B680F
:1015F0007A68D31A632B14D900F054F80346002BF1
:1016000006D1224B01221A70214B00221A8005E0DC
:101610001F4B1B8801339AB21D4B1A801A4A7B68F4
:1016200013601C4B1B687A68D31AB3F5FA7F09D391
:10163000164B1B78DBB2002B01D000F0A3F8154A43
:101640007B681360144B1B687A68D31A312B0CD952
:101650000E4B1B78DBB2002B04D0104B1B881846B6
:1016600000F0D0F80C4A7B6813600D4B1B78DBB29E
:10167000002B04D00A4B00221A7000F0C9F900BFF9
:101680000837BD4680BD00BFA0030020A503002091
:10169000A6030020980300209C03002010030020D4
:1016A000A403002080B582B000AF194800F02EFDE1
:1016B0000346BB71BB79002B01D0BB7923E000232B
:1016C000FB7119E06421124800F025FE0346BB714E
:1016D000BB79002B04D00E4800F0EAFDBB7912E084
:1016E0000B4800F0A3FE0246FB7991B2094A22F8AA
:1016F0001310FB790133FB71FB79012BE2D904480C
:1017000000F0D6FD002318460837BD4680BD00BF57
:10171000F00100201003002080B485B000AF034624
:10172000FB80FB8807EE903AF8EE677A9FED117A1E
:1017300027EE877ADFED106AC7EE267AC7ED037AC7
:10174000D7ED037A9FED0D7A37EEC77ADFED0C6A9D
:10175000C7EE267AB3EE097A77EE877AC7ED027A7A
:10176000BB6807EE903AB0EE670A1437BD465DF8E5
:10177000047B70473333534000F07F455C8F423F1A
:101780000AD7233B80B588B002AF1B4B5B88184655
:10179000FFF7C2FF87ED050A174B1B887B820020ED
:1017A00004F0FCF801220121002004F037F97B8AC3
:1017B0003846124A112105F029FB3B461946002004
:1017C00004F0DEFB01220221002004F027F97869F1
:1017D000FEF7BAFE02460B463846CDE90023084A1A
:1017E000112105F013FB3B461946002004F0C8FB0D
:1017F00000BF1837BD4680BD100300204CA700086D
:1018000054A7000880B487B000AF0346FB80FB8874
:10181000B3F5805F02D340F6FF73FB80FB883F4A3D
:10182000A2FB03235B083B82FB883C4AA2FB03121A
:10183000520840F2AB2101FB02F29B1AFB81FA89AC
:1018400013461B039B1A354A82FB03125210DB1707
:10185000D31ABB813B8A042B3AD801A252F823F059
:1018600075180008851800089B180008AB180008B8
:10187000C118000840F6FF73FB82BB89BB820023BE
:101880007B8230E0BB89C3F57F630F33FB8240F678
:10189000FF73BB8200237B8225E00023FB8240F69E
:1018A000FF73BB82BB897B821DE00023FB82BB8967
:1018B000C3F57F630F33BB8240F6FF737B8212E078
:1018C000BB89FB820023BB8240F6FF737B820AE068
:1018D00040F6FF73FB820023BB82BB89C3F57F63A5
:1018E0000F337B8200BFFB8AC3F57F630F330C4A43
:1018F00012689363BB8AC3F57F630F33084A12688B
:10190000D3637B8AC3F57F630F33054A1268136480
:1019100000BF1C37BD465DF8047B704703E8BF007D
:101920003802002080B400AF094B1B6840F6FF72FC
:101930009A63074B1B6840F6FF72DA63044B1B681F
:1019400040F6FF721A6400BFBD465DF8047B704725
:101950003802002080B584B000AF7860802200217A
:10196000114805F0EEFA7B68104A80210E4805F018
:101970004DFA0D48FEF77CFC03469AB24FF47A7399
:1019800009490B4802F05EFE0346FB73FB7B002B0C
:1019900005D0084B1B8801339AB2064B1A80FB7B9B
:1019A00018461037BD4680BD1403002060A700080C
:1019B000C8020020A803002080B500AF0B48FFF745
:1019C000C9FF4FF47A7000F039FB0948FFF7C2FFF6
:1019D0004FF47A7000F032FB0648FFF7BBFF4FF47C
:1019E0007A7000F02BFB00BF80BD00BF68A7000825
:1019F0006CA7000874A7000880B400AF72B600BFDF
:101A000000BFFDE780B500AFFFF7F6FF00BF80BD68
:101A100080B400AF00BFBD465DF8047B7047000096
:101A200080B483B000AF00237B60104B5B6C0F4A27
:101A300043F4804353640D4B5B6C03F480437B6041
:101A40007B6800233B60094B1B6C084A43F08053C2
:101A50001364064B1B6C03F080533B603B6800BF74
:101A60000C37BD465DF8047B704700BF003802406C
:101A700080B58AB000AF786007F1140300221A60C5
:101A80005A609A60DA601A617B681B68174A934251
:101A900027D100233B61164B5B6C154A43F48073DE
:101AA0005364134B5B6C03F480733B613B6900230D
:101AB000FB600F4B1B6B0E4A43F0010313630C4B8F
:101AC0001B6B03F00103FB60FB6810237B610323A6
:101AD000BB610023FB6107F114031946054801F0BF
:101AE00075F800BF2837BD4680BD00BF002001400B
:101AF000003802400000024080B485B000AF78603A
:101B00007B681B680B4A93420DD10023FB600A4B94
:101B10005B6C094A43F001035364074B5B6C03F0B1
:101B20000103FB60FB6800BF1437BD465DF8047B12
:101B3000704700BF000001400038024080B588B007
:101B400000AF786007F10C0300221A605A609A60B7
:101B5000DA601A617B681B68124A93421ED1002327
:101B6000BB60114B1B6B104A43F0100313630E4B09
:101B70001B6B03F01003BB60BB684FF4D043FB60EA
:101B800002233B6100237B610023BB610123FB61D6
:101B900007F10C031946054801F018F800BF20377B
:101BA000BD4680BD000001400038024000100240E8
:101BB00080B58CB000AF786007F11C0300221A607A
:101BC0005A609A60DA601A617B681B683A4A9342ED
:101BD00034D10023BB61394B5B6C384A43F01003AE
:101BE0005364364B5B6C03F01003BB61BB6900238D
:101BF0007B61324B1B6B314A43F0020313632F4B63
:101C00001B6B03F002037B617B69C023FB61022332
:101C10003B6200237B620323BB620723FB6207F165
:101C20001C031946264800F0D1FF00220021252080
:101C300000F003FF252000F01CFF38E07B681B68E4
:101C4000204A934233D100233B611C4B1B6C1B4A3F
:101C500043F400331364194B1B6C03F400333B61F2
:101C60003B690023FB60154B1B6B144A43F00103D7
:101C70001363124B1B6B03F00103FB60FB680C2327
:101C8000FB6102233B6200237B620323BB620723C9
:101C9000FB6207F11C0319460B4800F097FF002276
:101CA0000021262000F0C9FE262000F0E2FE00BF41
:101CB0003037BD4680BD00BF0010014000380240F3
:101CC00000040240004400400000024080B400AF25
:101CD00000BFFDE780B400AF00BFFDE780B400AFF8
:101CE00000BFFDE780B400AF00BFFDE780B400AFE8
:101CF00000BFFDE780B400AF00BFBD465DF8047BC8
:101D0000704780B400AF00BFBD465DF8047B7047EC
:101D100080B400AF00BFBD465DF8047B704780B55E
:101D200000AF00F06BF900BF80BD000080B500AFD0
:101D3000024802F037FD00BF80BD00BF80020020D6
:101D400080B500AF024802F02DFD00BF80BD00BF8E
:101D5000C802002080B400AF01231846BD465DF8DC
:101D6000047B704780B582B000AF7860396005F0C1
:101D70003BF9034616221A604FF0FF331846083726
:101D8000BD4680BD80B582B000AF78604FF0FF31B6
:101D90007868FFF7E7FF00BFFDE780B586B000AFCA
:101DA000F860B9607A6000237B610AE0AFF30080DD
:101DB0000146BB685A1CBA60CAB21A707B6901330B
:101DC0007B617A697B689A42F0DB7B68184618373A
:101DD000BD4680BD80B586B000AFF860B9607A605E
:101DE00000237B6109E0BB685A1CBA601B78184667
:101DF000AFF300807B6901337B617A697B689A422B
:101E0000F1DB7B6818461837BD4680BD80B483B0CF
:101E100000AF78604FF0FF3318460C37BD465DF8D1
:101E2000047B704780B483B000AF786039603B6852
:101E30004FF400525A60002318460C37BD465DF837
:101E4000047B704780B483B000AF786001231846EC
:101E50000C37BD465DF8047B704780B485B000AF99
:101E6000F860B9607A60002318461437BD465DF803
:101E7000047B704780B586B000AF7860144A154B7C
:101E8000D31A7B617B693B61134B1B68002B02D12A
:101E9000114B124A1A60104B1A687B6813443A6956
:101EA0009A4207D205F0A0F803460C221A604FF0C0
:101EB000FF3309E0084B1B68FB60074B1A687B681F
:101EC0001344054A1360FB6818461837BD4680BDA9
:101ED0000000022000040000AC03002000050020E8
:101EE00080B400AF064BD3F88830054A43F4700342
:101EF000C2F8883000BFBD465DF8047B704700BF64
:101F000000ED00E0DFF834D0FFF7EAFF0C480D49A0
:101F10000D4A002302E0D458C4500433C4188C4244
:101F2000F9D30A4A0A4C002301E013600432A242AA
:101F3000FBD305F05FF8FFF773F87047000002204D
:101F400000000020D401002004AC0008D4010020CF
:101F500000050020FEE7000080B500AF0E4B1B68B7
:101F60000D4A43F4007313600B4B1B680A4A43F499
:101F700080631360084B1B68074A43F48073136047
:101F8000032000F04FFD0F2000F008F8FFF748FD98
:101F90000023184680BD00BF003C024080B582B0DF
:101FA00000AF7860124B1A68124B1B7819464FF439
:101FB0007A73B3FBF1F3B2FBF3F3184600F067FD5D
:101FC0000346002B01D001230EE07B680F2B0AD8BB
:101FD000002279684FF0FF3000F02FFD064A7B6841
:101FE0001360002300E0012318460837BD4680BD7A
:101FF00000000020080000200400002080B400AF92
:10200000064B1B781A46064B1B681344044A1360A0
:1020100000BFBD465DF8047B704700BF080000208C
:10202000B003002080B400AF034B1B681846BD46C8
:102030005DF8047B704700BFB003002080B584B01A
:1020400000AF7860FFF7EEFFB8607B68FB60FB686D
:10205000B3F1FF3F05D00A4B1B781A46FB681344C7
:10206000FB6000BFFFF7DEFF0246BB68D31AFA68C9
:102070009A42F7D800BF00BF1037BD4680BD00BFF1
:102080000800002080B584B000AF78600023FB73A7
:102090007B68002B01D1012333E07B681B6C002B94
:1020A00009D17868FFF7E4FC7B6800225A647B68FA
:1020B000002283F83C207B681B6C03F01003002B8C
:1020C00018D17B681B6C23F4885323F0020343F080
:1020D00002027B681A64786800F0D8FA7B680022F4
:1020E0005A647B681B6C23F0030343F001027B6896
:1020F0001A6401E00123FB737B68002283F83C2013
:10210000FB7B18461037BD4680BD000080B485B00B
:1021100000AF78600023BB607B6893F83C30012BF4
:1021200001D10223B2E07B68012283F83C207B6866
:102130001B689B6803F00103012B18D07B681B68A8
:102140009A687B681B6842F001029A60524B1B68D8
:10215000524AA2FB03239A0C13465B001344BB6054
:1021600002E0BB68013BBB60BB68002BF9D17B6818
:102170001B689B6803F00103012B7AD17B681B6C01
:1021800023F4E06323F0010343F480727B681A6454
:102190007B681B685B6803F48063002B07D07B6857
:1021A0001B6C23F4405343F480527B681A647B68B1
:1021B0001B6C03F48053B3F5805F06D17B685B6CC6
:1021C00023F006027B685A6402E07B6800225A64AE
:1021D0007B68002283F83C20314BFB607B681B68E6
:1021E0006FF022021A60FB685B6803F01F03002B8C
:1021F0002AD17B681B682B4A934215D07B681B68E9
:10220000294A934205D1264B5B6803F01F03002B3C
:102210000AD07B681B68254A934236D1204B5B6805
:1022200003F01003002B30D17B681B689B6803F020
:102230004053002B29D17B681B689A687B681B6818
:1022400042F080429A6020E07B681B68154A934206
:102250001BD17B681B689B6803F04053002B14D193
:102260007B681B689A687B681B6842F080429A60B2
:102270000BE07B681B6C43F010027B681A647B6880
:102280005B6C43F001027B685A64002318461437E4
:10229000BD465DF8047B70470000002083DE1B43D1
:1022A00000230140002001400021014000220140A4
:1022B00080B483B000AF78607B6893F83C30012B2A
:1022C00001D1022321E07B68012283F83C207B6856
:1022D0001B689A687B681B6822F001029A607B6821
:1022E0001B689B6803F00103002B09D17B681B6C02
:1022F00023F4885323F0010343F001027B681A643E
:102300007B68002283F83C20002318460C37BD462A
:102310005DF8047B704780B584B000AF78603960A9
:102320000023FB607B681B689B6803F48063B3F544
:10233000806F13D17B681B689B6803F48073B3F5CF
:10234000807F0BD17B681B6C43F020027B681A6492
:102350007B68002283F83C20012363E0FFF762FEE4
:10236000F86021E03B68B3F1FF3F1DD03B68002BD4
:1023700007D0FFF757FE0246FB68D31A3A689A4225
:1023800012D27B681B681B6803F00203022B0BD080
:102390007B681B6C43F004027B681A647B68002234
:1023A00083F83C2003233DE07B681B681B6803F037
:1023B0000203022BD6D17B681B686FF012021A60F1
:1023C0007B681B6C43F400727B681A647B681B6833
:1023D0009B6803F04053002B23D17B681B7E002BAE
:1023E0001FD17B681B68DB6A03F47003002B06D0E7
:1023F0007B681B689B6803F48063002B11D17B68AA
:102400001B6C23F480727B681A647B681B6C03F47A
:102410008053002B05D17B681B6C43F001027B6865
:102420001A64002318461037BD4680BD80B483B0BF
:1024300000AF78607B681B68DB6C18460C37BD46C4
:102440005DF8047B7047000080B485B000AF786011
:1024500039600023BB607B6893F83C30012B01D1CD
:10246000022305E17B68012283F83C203B681B685E
:10247000092B25D97B681B68D9683B681B689BB210
:102480001A4613465B0013441E3B072202FA03F36D
:10249000DA437B681B680A40DA607B681B68D9688E
:1024A0003B689A683B681B689BB2184603465B0012
:1024B00003441E3B9A407B681B680A43DA6022E0B3
:1024C0007B681B6819693B681B689BB21A461346F8
:1024D0005B001344072202FA03F3DA437B681B68AC
:1024E0000A401A617B681B6819693B689A683B68F7
:1024F0001B689BB2184603465B0003449A407B6806
:102500001B680A431A613B685B68062B24D87B680A
:102510001B68596B3B685A6813469B001344053B84
:102520001F2202FA03F3DA437B681B680A405A63EE
:102530007B681B68596B3B681B689BB218463B68FD
:102540005A6813469B001344053B00FA03F27B686C
:102550001B680A435A634CE03B685B680C2B24D829
:102560007B681B68196B3B685A6813469B001344D1
:10257000233B1F2202FA03F3DA437B681B680A40FD
:102580001A637B681B68196B3B681B689BB2184613
:102590003B685A6813469B001344233B00FA03F23E
:1025A0007B681B680A431A6323E07B681B68D96A4F
:1025B0003B685A6813469B001344413B1F2202FAB2
:1025C00003F3DA437B681B680A40DA627B681B68A6
:1025D000D96A3B681B689BB218463B685A68134629
:1025E0009B001344413B00FA03F27B681B680A43DB
:1025F000DA62224BFB607B681B68214A934209D157
:102600003B681B68122B05D1FB685B6843F48002B2
:10261000FB685A607B681B68194A934223D13B6868
:102620001B68102B03D03B681B68112B1BD1FB6868
:102630005B6843F40002FB685A603B681B68102B20
:1026400011D1104B1B68104AA2FB03239A0C1346AE
:102650009B0013445B00BB6002E0BB68013BBB60B6
:10266000BB68002BF9D17B68002283F83C20002353
:1026700018461437BD465DF8047B704700230140BF
:10268000002001400000002083DE1B4380B485B0A1
:1026900000AF7860794BFB60FB685B6823F44032E5
:1026A000FB685A60FB685A687B685B681A43FB6882
:1026B0005A607B681B685A687B681B6822F48072CA
:1026C0005A607B681B6859687B681B691A027B68C3
:1026D0001B680A435A607B681B685A687B681B68E2
:1026E00022F040725A607B681B6859687B689A6860
:1026F0007B681B680A435A607B681B689A687B6822
:102700001B6822F400629A607B681B6899687B688A
:10271000DA687B681B680A439A607B689B6A584A40
:10272000934222D07B681B689A687B681B6822F002
:1027300070629A607B681B6899687B689A6A7B689C
:102740001B680A439A607B681B689A687B681B68F1
:1027500022F040529A607B681B6899687B68DA6A4D
:102760007B681B680A439A600FE07B681B689A6865
:102770007B681B6822F070629A607B681B689A68AD
:102780007B681B6822F040529A607B681B689A68DD
:102790007B681B6822F002029A607B681B6899685C
:1027A0007B681B7E5A007B681B680A439A607B68C3
:1027B00093F82030002B1BD07B681B685A687B681D
:1027C0001B6842F400625A607B681B685A687B6829
:1027D0001B6822F460425A607B681B6859687B68FA
:1027E0005B6A013B5A037B681B680A435A6007E037
:1027F0007B681B685A687B681B6822F400625A6019
:102800007B681B68DA6A7B681B6822F47002DA62F4
:102810007B681B68D96A7B68DB69013B1A057B68AA
:102820001B680A43DA627B681B689A687B681B68CE
:1028300022F400729A607B681B6899687B6893F841
:1028400030305A027B681B680A439A607B681B68B9
:102850009A687B681B6822F480629A607B681B68B8
:1028600099687B685B699A027B681B680A439A6077
:1028700000BF1437BD465DF8047B7047002301405C
:102880000100000F80B485B000AF78607B6803F072
:102890000703FB600C4BDB68BB60BA684FF6FF03B5
:1028A0001340BB60FB681A02BB68134343F0BF636D
:1028B00043F40033BB60044ABB68D36000BF1437E5
:1028C000BD465DF8047B704700ED00E080B400AFCA
:1028D000044BDB681B0A03F007031846BD465DF88E
:1028E000047B704700ED00E080B483B000AF034686
:1028F000FB7197F90730002B0BDBFB7903F01F020C
:10290000074997F907305B09012000FA02F241F804
:10291000232000BF0C37BD465DF8047B704700BF25
:1029200000E100E080B483B000AF03463960FB7182
:1029300097F90730002B0ADB3B68DAB20C4997F9AC
:1029400007301201D2B20B4483F800230AE03B683F
:10295000DAB20849FB7903F00F03043B1201D2B24B
:102960000B441A7600BF0C37BD465DF8047B7047F8
:1029700000E100E000ED00E080B489B000AFF86055
:10298000B9607A60FB6803F00703FB61FB69C3F180
:102990000703042B28BF0423BB61FB690433062B08
:1029A00002D9FB69033B00E000237B614FF0FF325B
:1029B000BB6902FA03F3DA43BB681A407B699A40A9
:1029C0004FF0FF317B6901FA03F3D9437B680B4079
:1029D000134318462437BD465DF8047B704700005A
:1029E00080B582B000AF78607B68013BB3F1807F37
:1029F00001D301230FE00A4A7B68013B53600F219A
:102A00004FF0FF30FFF78EFF054B00229A60044B1A
:102A100007221A60002318460837BD4680BD00BF54
:102A200010E000E080B582B000AF78607868FFF712
:102A300029FF00BF0837BD4680BD80B586B000AF16
:102A40000346B9607A60FB7300237B61FFF73EFFAA
:102A500078617A68B9687869FFF78EFF024697F95E
:102A60000F3011461846FFF75DFF00BF1837BD460F
:102A700080BD80B582B000AF0346FB7197F9073087
:102A80001846FFF731FF00BF0837BD4680BD80B54F
:102A900082B000AF78607868FFF7A2FF034618465F
:102AA0000837BD4680BD80B584B000AF78607B68D4
:102AB0009B6DFB60FFF7B6FAB8607B6893F8353022
:102AC000DBB2022B08D07B6880225A657B6800222B
:102AD00083F83420012352E07B681B681A687B6806
:102AE0001B6822F016021A607B681B685A697B68B3
:102AF0001B6822F080025A617B681B6C002B03D19B
:102B00007B689B6C002B07D07B681B681A687B680E
:102B10001B6822F008021A607B681B681A687B68D1
:102B20001B6822F001021A6013E0FFF77BFA0246ED
:102B3000BB68D31A052B0CD97B6820225A657B68A9
:102B4000032283F835207B68002283F83420032396
:102B500015E07B681B681B6803F00103002BE4D1C0
:102B60007B68DB6D3F229A40FB689A607B6801229C
:102B700083F835207B68002283F834200023184630
:102B80001037BD4680BD80B483B000AF78607B68ED
:102B900093F83530DBB2022B04D07B6880225A6573
:102BA00001230CE07B68052283F835207B681B68D5
:102BB0001A687B681B6822F001021A60002318461D
:102BC0000C37BD465DF8047B7047000080B489B0C7
:102BD00000AF7860396000237B6100233B610023F4
:102BE000BB610023FB616BE10122FB6902FA03F385
:102BF0007B613B681B687A6913403B613A697B697A
:102C00009A4240F05A813B685B6803F00303012B52
:102C100005D03B685B6803F00303022B30D17B686F
:102C20009B68BB61FB695B00032202FA03F3DB4391
:102C3000BA691340BB613B68DA68FB695B0002FA62
:102C400003F3BA691343BB617B68BA699A607B6816
:102C50005B68BB610122FB6902FA03F3DB43BA69DB
:102C60001340BB613B685B681B0903F00102FB6911
:102C700002FA03F3BA691343BB617B68BA695A600D
:102C80003B685B6803F00303032B17D07B68DB68AA
:102C9000BB61FB695B00032202FA03F3DB43BA6901
:102CA0001340BB613B689A68FB695B0002FA03F35F
:102CB000BA691343BB617B68BA69DA603B685B68D9
:102CC00003F00303022B23D1FB69DA087B68083287
:102CD00053F82230BB61FB6903F007039B000F220E
:102CE00002FA03F3DB43BA691340BB613B681A691C
:102CF000FB6903F007039B0002FA03F3BA6913436D
:102D0000BB61FB69DA087B680832B96943F82210B5
:102D10007B681B68BB61FB695B00032202FA03F35B
:102D2000DB43BA691340BB613B685B6803F0030295
:102D3000FB695B0002FA03F3BA691343BB617B686A
:102D4000BA691A603B685B6803F44033002B00F0FB
:102D5000B4800023FB60604B5B6C5F4A43F48043AC
:102D600053645D4B5B6C03F48043FB60FB685B4A20
:102D7000FB699B08023352F82330BB61FB6903F007
:102D800003039B000F2202FA03F3DB43BA691340EB
:102D9000BB617B68524A93422BD07B68514A934275
:102DA00025D07B68504A93421FD07B684F4A93429C
:102DB00019D07B684E4A934213D07B684D4A9342A8
:102DC0000DD07B684C4A934207D07B684B4A9342B4
:102DD00001D107230EE008230CE006230AE00523B7
:102DE00008E0042306E0032304E0022302E00123B9
:102DF00000E00023FA6902F0030292009340BA69EE
:102E00001343BB613549FB699B080233BA6941F83A
:102E100023203B4B9B68BB613B69DB43BA69134092
:102E2000BB613B685B6803F48013002B03D0BA6975
:102E30003B691343BB61324ABB699360304BDB682B
:102E4000BB613B69DB43BA691340BB613B685B68AC
:102E500003F40013002B03D0BA693B691343BB6131
:102E6000274ABB69D360264B5B68BB613B69DB4388
:102E7000BA691340BB613B685B6803F40033002B05
:102E800003D0BA693B691343BB611D4ABB695360F8
:102E90001B4B1B68BB613B69DB43BA691340BB61D9
:102EA0003B685B6803F48033002B03D0BA693B694D
:102EB0001343BB61124ABB691360FB690133FB61B9
:102EC000FB690F2B7FF690AE00BF00BF2437BD46D5
:102ED0005DF8047B704700BF0038024000380140B5
:102EE000000002400004024000080240000C0240C2
:102EF000001002400014024000180240001C024072
:102F0000003C014080B483B000AF78600B467B800A
:102F100013467B707B78002B03D07A887B689A619C
:102F200003E07B881A047B689A6100BF0C37BD46BA
:102F30005DF8047B7047000080B586B000AF786014
:102F40007B68002B01D1012367E27B681B6803F0DB
:102F50000103002B75D0884B9B6803F00C03042BF6
:102F60000CD0854B9B6803F00C03082B12D1824BCD
:102F70005B6803F48003B3F5800F0BD17E4B1B68B5
:102F800003F40033002B5BD07B685B68002B57D1C8
:102F9000012342E27B685B68B3F5803F06D1764B44
:102FA0001B68754A43F4803313601DE07B685B68DF
:102FB000B3F5A02F0CD1704B1B686F4A43F48023EC
:102FC00013606D4B1B686C4A43F4803313600BE055
:102FD000694B1B68684A23F480331360664B1B6897
:102FE000654A23F4802313607B685B68002B13D051
:102FF000FFF718F8386108E0FFF714F802463B695C
:10300000D31A642B01D9032307E25B4B1B6803F43B
:103010000033002BF0D014E0FFF704F8386108E02B
:10302000FFF700F802463B69D31A642B01D903234A
:10303000F3E1514B1B6803F40033002BF0D100E0A7
:1030400000BF7B681B6803F00203002B63D04A4B70
:103050009B6803F00C03002B0BD0474B9B6803F0DD
:103060000C03082B1CD1444B5B6803F48003002B3A
:1030700016D1414B1B6803F00203002B05D07B687F
:10308000DB68012B01D00123C7E13B4B1B6823F018
:10309000F8027B681B69DB00374913430B603AE099
:1030A0007B68DB68002B20D0344B01221A60FEF7CE
:1030B000B9FF386108E0FEF7B5FF02463B69D31A55
:1030C000022B01D90323A8E12B4B1B6803F0020359
:1030D000002BF0D0284B1B6823F0F8027B681B699B
:1030E000DB00254913430B6015E0244B00221A60D6
:1030F000FEF798FF386108E0FEF794FF02463B694F
:10310000D31A022B01D9032387E11B4B1B6803F061
:103110000203002BF0D17B681B6803F00803002B2F
:1031200036D07B685B69002B16D0154B01221A60E4
:10313000FEF778FF386108E0FEF774FF02463B694E
:10314000D31A022B01D9032367E10B4B5B6F03F00A
:103150000203002BF0D01BE0094B00221A60FEF79F
:1031600061FF38610EE0FEF75DFF02463B69D31A4E
:10317000022B07D9032350E10038024000004742E8
:10318000800E4742884B5B6F03F00203002BEAD1AD
:103190007B681B6803F00403002B00F0978000237A
:1031A000FB75814B1B6C03F08053002B0FD1002368
:1031B000BB607D4B1B6C7C4A43F0805313647A4B9D
:1031C0001B6C03F08053BB60BB680123FB75774B1E
:1031D0001B6803F48073002B18D1744B1B68734A6F
:1031E00043F480731360FEF71DFF386108E0FEF7BB
:1031F00019FF02463B69D31A022B01D903230CE1C4
:103200006A4B1B6803F48073002BF0D07B689B68CB
:10321000012B06D1644B1B6F634A43F00103136714
:103220001CE07B689B68052B0CD15F4B1B6F5E4AD3
:1032300043F0040313675C4B1B6F5B4A43F00103CD
:1032400013670BE0584B1B6F574A23F001031367BA
:10325000554B1B6F544A23F0040313677B689B682C
:10326000002B15D0FEF7DEFE38610AE0FEF7DAFE2D
:1032700002463B69D31A41F28832934201D90323B3
:10328000CBE0494B1B6F03F00203002BEED014E0A0
:10329000FEF7C8FE38610AE0FEF7C4FE02463B694D
:1032A000D31A41F28832934201D90323B5E03E4B51
:1032B0001B6F03F00203002BEED1FB7D012B05D128
:1032C000394B1B6C384A23F0805313647B689B692D
:1032D000002B00F0A180344B9B6803F00C03082BFB
:1032E0005CD07B689B69022B41D1314B00221A6074
:1032F000FEF798FE386108E0FEF794FE02463B694F
:10330000D31A022B01D9032387E0274B1B6803F054
:103310000073002BF0D17B68DA697B681B6A1A4363
:103320007B685B6A9B011A437B689B6A5B08013B75
:103330001B041A437B68DB6A1B061B4913434B6063
:103340001B4B01221A60FEF76DFE386108E0FEF7A4
:1033500069FE02463B69D31A022B01D903235CE0C4
:10336000114B1B6803F00073002BF0D054E0104B9E
:1033700000221A60FEF756FE386108E0FEF752FEA2
:1033800002463B69D31A022B01D9032345E0064BC1
:103390001B6803F00073002BF0D13DE07B689B6954
:1033A000012B07D1012338E00038024000700040B3
:1033B000600047421B4B5B68FB607B689B69012B8D
:1033C00028D0FB6803F480027B68DB699A4221D134
:1033D000FB6803F03F027B681B6A9A421AD1FA68C5
:1033E00047F6C07313407A68526A9201934211D132
:1033F000FB6803F440327B689B6A5B08013B1B045B
:103400009A4207D1FB6803F070627B68DB6A1B0697
:103410009A4201D0012300E0002318461837BD4628
:1034200080BD00BF0038024080B584B000AF786036
:1034300039607B68002B01D10123CCE0684B1B680D
:1034400003F007033A689A420CD9654B3A68D2B246
:103450001A70634B1B6803F007033A689A4201D065
:103460000123B8E07B681B6803F00203002B20D027
:103470007B681B6803F00403002B05D0594B9B6845
:10348000584A43F4E05393607B681B6803F00803D9
:10349000002B05D0534B9B68524A43F46043936022
:1034A000504B9B6823F0F0027B689B684D491343A7
:1034B0008B607B681B6803F00103002B44D07B68A2
:1034C0005B68012B07D1474B1B6803F40033002BCB
:1034D00019D101237FE07B685B68022B03D07B68F6
:1034E0005B68032B07D13F4B1B6803F00073002B75
:1034F00009D101236FE03B4B1B6803F00203002B53
:1035000001D1012367E0374B9B6823F003027B68FE
:103510005B68344913438B60FEF784FDF8600AE072
:10352000FEF780FD0246FB68D31A41F288329342CF
:1035300001D903234FE02B4B9B6803F00C027B68FF
:103540005B689B009A42EBD1254B1B6803F0070395
:103550003A689A420CD2224B3A68D2B21A70204B87
:103560001B6803F007033A689A4201D0012332E056
:103570007B681B6803F00403002B08D0194B9B6881
:1035800023F4E0527B68DB68164913438B607B6849
:103590001B6803F00803002B09D0124B9B6823F42F
:1035A00060427B681B69DB000E4913438B6000F0AF
:1035B00021F802460B4B9B681B0903F00F030A49D5
:1035C000CB5C22FA03F3094A1360094B1B681846C7
:1035D000FEF7E4FC002318461037BD4680BD00BF4F
:1035E000003C02400038024080A700080000002094
:1035F000040000202DE9B04F90B000AF00237B63A2
:103600000023FB6300233B630023BB63594B9B6890
:1036100003F00C03082B0DD0082B00F2A180002B27
:1036200002D0042B03D09BE0534BBB639BE0534B76
:10363000BB6398E04F4B5B6803F03F037B634D4BEC
:103640005B6803F48003002B28D04A4B5B689B091E
:1036500000223B627A623B6AC3F308000021474BB9
:1036600003FB01F2002300FB03F31344434AA0FBD6
:103670000212FA620A46BA62FA6A1344FB627B6B70
:103680000022BB61FA61D7E90623D7E90A01FDF7F9
:10369000FBFA02460B461346FB6353E0354B5B686F
:1036A0009B0900223B617A613B69C3F3080A4FF032
:1036B000000B52465B464FF000004FF000015901ED
:1036C00041EAD261500102460B46B2EB0A0863EBB5
:1036D0000B094FF000024FF000034FEA891343EA51
:1036E00098634FEA8812B2EB080463EB09054FF0C8
:1036F00000024FF00003EB0043EA5473E20014466B
:103700001D4614EB0A033B6045EB0B037B604FF057
:1037100000024FF00003D7E9004529468B022146FD
:1037200043EA915321468A02104619467B6B0022D8
:10373000BB60FA60D7E90223FDF7A6FA02460B4602
:103740001346FB630B4B5B681B0C03F00303013355
:103750005B003B63FA6B3B6BB2FBF3F3BB6302E0D2
:10376000054BBB6300BFBB6B18464037BD46BDE889
:10377000B08F00BF003802400024F40040787D0183
:1037800080B400AF034B1B681846BD465DF8047B50
:10379000704700BF0000002080B500AFFFF7F0FFCA
:1037A0000246054B9B689B0A03F007030349CB5C69
:1037B00022FA03F3184680BD0038024090A70008A3
:1037C00080B500AFFFF7DCFF0246054B9B685B0B43
:1037D00003F007030349CB5C22FA03F3184680BDCC
:1037E0000038024090A7000880B582B000AF786032
:1037F0007B68002B01D1012341E07B6893F83D30C9
:10380000DBB2002B06D17B68002283F83C2078686D
:10381000FEF772F97B68022283F83D207B681A6804
:103820007B6804331946104600F0D8FA7B68012201
:1038300083F846207B68012283F83E207B680122C2
:1038400083F83F207B68012283F840207B680122B7
:1038500083F841207B68012283F842207B680122A3
:1038600083F843207B68012283F844207B6801228F
:1038700083F845207B68012283F83D200023184609
:103880000837BD4680BD80B582B000AF78607B68E8
:10389000002B01D1012341E07B6893F83D30DBB27E
:1038A000002B06D17B68002283F83C20786800F06A
:1038B00039F87B68022283F83D207B681A687B68B0
:1038C00004331946104600F089FA7B68012283F818
:1038D00046207B68012283F83E207B68012283F822
:1038E0003F207B68012283F840207B68012283F817
:1038F00041207B68012283F842207B68012283F803
:1039000043207B68012283F844207B68012283F8EE
:1039100045207B68012283F83D20002318460837A4
:10392000BD4680BD80B483B000AF786000BF0C3767
:10393000BD465DF8047B704780B584B000AF786009
:1039400039603B68002B09D17B6893F83E30DBB2CD
:10395000012B14BF01230023DBB222E03B68042BC0
:1039600009D17B6893F83F30DBB2012B14BF0123F0
:103970000023DBB215E03B68082B09D17B6893F884
:103980004030DBB2012B14BF01230023DBB208E07F
:103990007B6893F84130DBB2012B14BF0123002375
:1039A000DBB2002B01D001237CE03B68002B04D16B
:1039B0007B68022283F83E2013E03B68042B04D18D
:1039C0007B68022283F83F200BE03B68082B04D180
:1039D0007B68022283F8402003E07B68022283F8A0
:1039E00041207B681B6801223968184600F0E6FC1C
:1039F0007B681B682D4A934204D07B681B682C4A65
:103A0000934201D1012300E00023002B07D07B6803
:103A10001B685A6C7B681B6842F400425A647B68DE
:103A20001B68224A934222D07B681B68B3F1804F07
:103A30001DD07B681B681F4A934218D07B681B68A7
:103A40001D4A934213D07B681B681C4A93420ED0D8
:103A50007B681B68164A934209D07B681B68184A2A
:103A6000934204D07B681B68164A934211D17B684D
:103A70001B689B6803F00703FB60FB68062B10D0F4
:103A80007B681B681A687B681B6842F001021A6039
:103A900007E07B681B681A687B681B6842F00102BC
:103AA0001A60002318461037BD4680BD0000014053
:103AB000000401400004004000080040000C0040E9
:103AC000004001400018004080B586B000AFF860AB
:103AD000B9607A600023FB75FB6893F83C30012BDA
:103AE00001D10223AEE0FB68012283F83C207B6811
:103AF0000C2B00F29F8001A252F823F0313B00080A
:103B0000353C0008353C0008353C0008713B000896
:103B1000353C0008353C0008353C0008B33B000844
:103B2000353C0008353C0008353C0008F33B0008F4
:103B3000FB681B68B968184600F0F6F9FB681B685B
:103B40009A69FB681B6842F008029A61FB681B686F
:103B50009A69FB681B6822F004029A61FB681B6883
:103B60009969BB681A69FB681B680A439A6164E03B
:103B7000FB681B68B968184600F046FAFB681B68CA
:103B80009A69FB681B6842F400629A61FB681B68D3
:103B90009A69FB681B6822F480629A61FB681B6863
:103BA0009969BB681B691A02FB681B680A439A6122
:103BB00043E0FB681B68B968184600F09BFAFB6895
:103BC0001B68DA69FB681B6842F00802DA61FB686F
:103BD0001B68DA69FB681B6822F00402DA61FB6883
:103BE0001B68D969BB681A69FB681B680A43DA61FC
:103BF00023E0FB681B68B968184600F0EFFAFB6821
:103C00001B68DA69FB681B6842F40062DA61FB68D2
:103C10001B68DA69FB681B6822F48062DA61FB6862
:103C20001B68D969BB681B691A02FB681B680A43D9
:103C3000DA6102E00123FB7500BFFB68002283F814
:103C40003C20FB7D18461837BD4680BD80B584B04A
:103C500000AF786039600023FB737B6893F83C30D9
:103C6000012B01D10223B4E07B68012283F83C20C0
:103C70007B68022283F83D207B681B689B68BB60E1
:103C8000BB6823F07703BB60BB6823F47F43BB6052
:103C90007B681B68BA689A603B681B68B3F5005F75
:103CA0003ED0B3F5005F00F28780B3F5805F00F08F
:103CB0008680B3F5805F7FD8702B1AD0702B7BD8AD
:103CC000602B50D0602B77D8502B3CD0502B73D822
:103CD000402B58D0402B6FD8302B64D0302B6BD872
:103CE000202B60D0202B67D8002B5CD0102B5AD013
:103CF00062E07B6818683B6899683B685A683B6873
:103D0000DB6800F03BFB7B681B689B68BB60BB68A3
:103D100043F07703BB607B681B68BA689A604FE02A
:103D20007B6818683B6899683B685A683B68DB6841
:103D300000F024FB7B681B689A687B681B6842F470
:103D400080429A603CE07B6818683B6859683B6831
:103D5000DB681A4600F098FA7B681B685021184609
:103D600000F0F1FA2CE07B6818683B6859683B6802
:103D7000DB681A4600F0B7FA7B681B6860211846BA
:103D800000F0E1FA1CE07B6818683B6859683B6802
:103D9000DB681A4600F078FA7B681B6840211846F9
:103DA00000F0D1FA0CE07B681A683B681B68194682
:103DB000104600F0C8FA03E00123FB7300E000BFE7
:103DC0007B68012283F83D207B68002283F83C2039
:103DD000FB7B18461037BD4680BD000080B485B01F
:103DE00000AF786039607B681B68FB607B68434A82
:103DF000934213D07B68B3F1804F0FD07B68404A69
:103E000093420BD07B683F4A934207D07B683E4A7F
:103E1000934203D07B683D4A934208D1FB6823F06C
:103E20007003FB603B685B68FA681343FB607B6868
:103E3000324A93422BD07B68B3F1804F27D07B6806
:103E40002F4A934223D07B682E4A93421FD07B682F
:103E50002D4A93421BD07B682C4A934217D07B6833
:103E60002B4A934213D07B682A4A93420FD07B6837
:103E7000294A93420BD07B68284A934207D07B683B
:103E8000274A934203D07B68264A934208D1FB68B5
:103E900023F44073FB603B68DB68FA681343FB6004
:103EA000FB6823F080023B685B691343FB603B685F
:103EB0009A687B68DA623B681A687B689A627B68FA
:103EC0000E4A934203D07B68104A934203D13B6869
:103ED0001A697B681A637B681B6843F004027B687D
:103EE0001A607B6801225A617B68FA681A6000BF19
:103EF0001437BD465DF8047B704700BF00000140E9
:103F00000004004000080040000C00400004014094
:103F100000400140004401400048014000180040BA
:103F2000001C00400020004080B487B000AF7860E3
:103F300039607B681B6A7B617B681B6A23F0010226
:103F40007B681A627B685B683B617B689B69FB608E
:103F5000FB6823F07003FB60FB6823F00303FB6046
:103F60003B681B68FA681343FB607B6923F002031C
:103F70007B613B689B687A6913437B617B68204A5D
:103F8000934203D07B681F4A93420CD17B6923F094
:103F900008037B613B68DB687A6913437B617B695B
:103FA00023F004037B617B68154A934203D07B684E
:103FB000144A934211D13B6923F480733B613B69FE
:103FC00023F400733B613B685B693A6913433B61CF
:103FD0003B689B693A6913433B617B683A695A6065
:103FE0007B68FA689A613B685A687B685A637B68A9
:103FF0007A691A6200BF1C37BD465DF8047B7047C2
:10400000000001400004014080B487B000AF786038
:1040100039607B681B6A7B617B681B6A23F0100236
:104020007B681A627B685B683B617B689B69FB60AD
:10403000FB6823F4E043FB60FB6823F44073FB6000
:104040003B681B681B02FA681343FB607B6923F023
:1040500020037B613B689B681B017A6913437B618A
:104060007B68224A934203D07B68214A93420DD158
:104070007B6923F080037B613B68DB681B017A6905
:1040800013437B617B6923F040037B617B68174AA4
:10409000934203D07B68164A934213D13B6923F4C1
:1040A00080633B613B6923F400633B613B685B6970
:1040B0009B003A6913433B613B689B699B003A69EB
:1040C00013433B617B683A695A607B68FA689A617E
:1040D0003B685A687B689A637B687A691A6200BF9A
:1040E0001C37BD465DF8047B704700BF00000140EF
:1040F0000004014080B487B000AF786039607B680D
:104100001B6A7B617B681B6A23F480727B681A627E
:104110007B685B683B617B68DB69FB60FB6823F065
:104120007003FB60FB6823F00303FB603B681B68C4
:10413000FA681343FB607B6923F400737B613B687F
:104140009B681B027A6913437B617B68214A934217
:1041500003D07B68204A93420DD17B6923F400632E
:104160007B613B68DB681B027A6913437B617B6977
:1041700023F480637B617B68164A934203D07B689B
:10418000154A934213D13B6923F480533B613B6949
:1041900023F400533B613B685B691B013A6913439D
:1041A0003B613B689B691B013A6913433B617B6838
:1041B0003A695A607B68FA68DA613B685A687B68DA
:1041C000DA637B687A691A6200BF1C37BD465DF806
:1041D000047B7047000001400004014080B487B0B8
:1041E00000AF786039607B681B6A3B617B681B6A43
:1041F00023F480527B681A627B685B687B617B6812
:10420000DB69FB60FB6823F4E043FB60FB6823F49D
:104210004073FB603B681B681B02FA681343FB603A
:104220003B6923F400533B613B689B681B033A697D
:1042300013433B617B68124A934203D07B68114A67
:10424000934209D17B6923F480437B613B685B69BE
:104250009B017A6913437B617B687A695A607B684A
:10426000FA68DA613B685A687B681A647B683A6965
:104270001A6200BF1C37BD465DF8047B704700BF63
:10428000000001400004014080B487B000AFF86036
:10429000B9607A60FB681B6A7B61FB681B6A23F06C
:1042A0000102FB681A62FB689B693B613B6923F072
:1042B000F0033B617B681B013A6913433B617B69F7
:1042C00023F00A037B617A69BB6813437B61FB6857
:1042D0003A699A61FB687A691A6200BF1C37BD4669
:1042E0005DF8047B704780B487B000AFF860B960B8
:1042F0007A60FB681B6A7B61FB681B6A23F0100213
:10430000FB681A62FB689B693B613B6923F470435D
:104310003B617B681B033A6913433B617B6923F074
:10432000A0037B61BB681B017A6913437B61FB6857
:104330003A699A61FB687A691A6200BF1C37BD4608
:104340005DF8047B704780B485B000AF7860396059
:104350007B689B68FB60FB6823F07003FB603A6836
:10436000FB68134343F00703FB607B68FA689A60BD
:1043700000BF1437BD465DF8047B704780B487B03A
:1043800000AFF860B9607A603B60FB689B687B6156
:104390007B6923F47F437B613B681A027B681A4385
:1043A000BB6813437A6913437B61FB687A699A603F
:1043B00000BF1C37BD465DF8047B704780B487B0F2
:1043C00000AFF860B9607A60BB6803F01F03012298
:1043D00002FA03F37B61FB681A6A7B69DB431A40CC
:1043E000FB681A62FB681A6ABB6803F01F037968EE
:1043F00001FA03F31A43FB681A6200BF1C37BD467B
:104400005DF8047B7047000080B485B000AF786031
:1044100039607B6893F83C30012B01D102235AE0CC
:104420007B68012283F83C207B68022283F83D20D0
:104430007B681B685B68FB607B681B689B68BB6074
:10444000FB6823F07003FB603B681B68FA6813434A
:10445000FB607B681B68FA685A607B681B68214AAE
:10446000934222D07B681B68B3F1804F1DD07B68DC
:104470001B681D4A934218D07B681B681B4A9342F5
:1044800013D07B681B681A4A93420ED07B681B6866
:10449000184A934209D07B681B68174A934204D09C
:1044A0007B681B68154A93420CD1BB6823F08003DC
:1044B000BB603B685B68BA681343BB607B681B6882
:1044C000BA689A607B68012283F83D207B680022ED
:1044D00083F83C20002318461437BD465DF8047B62
:1044E000704700BF00000140000400400008004089
:1044F000000C004000040140004001400018004052
:1045000080B485B000AF786039600023FB607B68C1
:1045100093F83C30012B01D102233DE07B6801225E
:1045200083F83C20FB6823F0FF023B68DB68134301
:10453000FB60FB6823F440723B689B681343FB609D
:10454000FB6823F480623B685B681343FB60FB6895
:1045500023F400623B681B681343FB60FB6823F491
:1045600080523B681B691343FB60FB6823F40052D5
:104570003B685B691343FB60FB6823F480423B6844
:10458000DB691343FB607B681B68FA685A647B68CD
:10459000002283F83C20002318461437BD465DF8FE
:1045A000047B704780B582B000AF78607B68002BD9
:1045B00001D1012342E07B6893F84130DBB2002B4C
:1045C00006D17B68002283F840207868FDF7F0FA76
:1045D0007B68242283F841207B681B68DA687B684B
:1045E0001B6822F40052DA60786800F0DDFD7B6819
:1045F0001B681A697B681B6822F490421A617B6809
:104600001B685A697B681B6822F02A025A617B6822
:104610001B68DA687B681B6842F40052DA607B68CA
:1046200000225A647B68202283F841207B68202284
:1046300083F842207B6800225A630023184608371B
:10464000BD4680BD80B58AB002AFF860B9603B60FE
:104650001346FB8000237B61FB6893F84130DBB29B
:10466000202B75D1BB68002B02D0FB88002B01D119
:1046700001236EE0FB6800225A64FB68212283F864
:104680004120FDF7CFFC7861FB68FA889A84FB68CB
:10469000FA88DA84FB689B68B3F5805F08D1FB6811
:1046A0001B69002B04D10023FB61BB68BB6103E0E5
:1046B000BB68FB610023BB612EE03B6800937B6914
:1046C00000228021F86800F041FB0346002B05D052
:1046D000FB68202283F8412003233AE0FB69002B8A
:1046E0000BD1BB691B881A46FB681B68C2F3080222
:1046F0005A60BB690233BB6107E0FB691A78FB684B
:104700001B685A60FB690133FB61FB68DB8C9BB261
:10471000013B9AB2FB68DA84FB68DB8C9BB2002B0E
:10472000CBD13B6800937B6900224021F86800F000
:104730000DFB0346002B05D0FB68202283F84120A7
:10474000032306E0FB68202283F84120002300E0D9
:10475000022318462037BD4680BD80B584B000AF27
:10476000F860B9601346FB80FB6893F84230DBB217
:10477000202B12D1BB68002B02D0FB88002B01D16B
:1047800001230BE0FB6800221A63FB881A46B96814
:10479000F86800F034FB034600E0022318461037A7
:1047A000BD4680BD80B5BAB000AF78607B681B683D
:1047B0001B68C7F8E4307B681B68DB68C7F8E0302B
:1047C0007B681B685B69C7F8DC300023C7F8D8300A
:1047D0000023C7F8D430D7F8E43003F00F03C7F84C
:1047E000D830D7F8D830002B0FD1D7F8E43003F009
:1047F0002003002B09D0D7F8E03003F02003002B72
:1048000003D0786800F011FC73E2D7F8D830002BA1
:1048100000F0DE80D7F8DC3003F00103002B06D176
:10482000D7F8E03003F49073002B00F0D180D7F874
:10483000E43003F00103002B0BD0D7F8E03003F491
:104840008073002B05D07B685B6C43F001027B68B2
:104850005A64D7F8E43003F00403002B0BD0D7F8E8
:10486000DC3003F00103002B05D07B685B6C43F068
:1048700002027B685A64D7F8E43003F00203002B8D
:104880000BD0D7F8DC3003F00103002B05D07B6898
:104890005B6C43F004027B685A64D7F8E43003F0A1
:1048A0000803002B11D0D7F8E03003F02003002BD1
:1048B00005D1D7F8DC3003F00103002B05D07B686D
:1048C0005B6C43F008027B685A647B685B6C002B6E
:1048D00000F00A82D7F8E43003F02003002B08D060
:1048E000D7F8E03003F02003002B02D0786800F006
:1048F0009CFB7B681B685B6903F04003402B0CBF8B
:1049000001230023DBB2C7F8D4307B685B6C03F073
:104910000803002B03D1D7F8D430002B4FD0786890
:1049200000F0A7FA7B681B685B6903F04003402B2B
:1049300041D17B681B681433C7F89C30D7F89C3092
:1049400053E8003FC7F89830D7F8983023F0400379
:10495000C7F8D0307B681B681433D7F8D020C7F86D
:10496000A820C7F8A430D7F8A410D7F8A82041E8A9
:104970000023C7F8A030D7F8A030002BD9D17B682E
:10498000DB6B002B13D07B68DB6B8A4A1A657B6874
:10499000DB6B1846FEF7F7F80346002B16D07B6852
:1049A000DB6B1B6D7A68D26B104698470EE0786817
:1049B00000F0B6F90AE0786800F0B2F906E078682D
:1049C00000F0AEF97B6800225A648DE100BF8BE1F4
:1049D0007B681B6B012B40F06781D7F8E43003F054
:1049E0001003002B00F06081D7F8E03003F01003D3
:1049F000002B00F059810023BB607B681B681B689B
:104A0000BB607B681B685B68BB60BB687B681B68BE
:104A10005B6903F04003402B40F0CE807B68DB6B8A
:104A20001B685B68A7F8BE30B7F8BE30002B00F0FB
:104A3000A9807B689B8DB7F8BE209A4280F0A28047
:104A40007B68B7F8BE20DA857B68DB6BDB69B3F582
:104A5000807F00F088807B681B680C33C7F8883043
:104A6000D7F8883053E8003FC7F88430D7F884304F
:104A700023F48073C7F8B8307B681B680C33D7F811
:104A8000B820C7F89420C7F89030D7F89010D7F81E
:104A9000942041E80023C7F88C30D7F88C30002BE5
:104AA000D9D17B681B6814337B677B6F53E8003F69
:104AB0003B673B6F23F00103C7F8B4307B681B688A
:104AC0001433D7F8B420C7F88020FB67F96FD7F804
:104AD000802041E80023BB67BB6F002BE1D17B68DE
:104AE0001B6814333B663B6E53E8003FFB65FB6D70
:104AF00023F04003C7F8B0307B681B681433D7F845
:104B0000B020FA66BB66B96EFA6E41E800237B6698
:104B10007B6E002BE3D17B68202283F842207B68E8
:104B200000221A637B681B680C33FB64FB6C53E840
:104B3000003FBB64BB6C23F01003C7F8AC307B684C
:104B40001B680C33D7F8AC20BA657B65796DBA6DFC
:104B500041E800233B653B6D002BE3D17B68DB6BB9
:104B60001846FDF7A0FF7B6802225A637B689A8D86
:104B70007B68DB8D9BB2D31A9BB21946786800F034
:104B8000D9F8B3E07B689B8DB7F8BE209A4240F01D
:104B9000AD807B68DB6BDB69B3F5807F40F0A6807E
:104BA0007B6802225A637B689B8D1946786800F007
:104BB000C1F89BE0394F00087B689A8D7B68DB8DDC
:104BC0009BB2D31AA7F8CE307B68DB8D9BB2002B4B
:104BD00000F08E80B7F8CE30002B00F089807B6823
:104BE0001B680C33BB63BB6B53E8003F7B637B6B81
:104BF00023F49073C7F8C8307B681B680C33D7F870
:104C0000C8207A643B64396C7A6C41E80023FB630A
:104C1000FB6B002BE3D17B681B6814337B627B6AE0
:104C200053E8003F3B623B6A23F00103C7F8C430FE
:104C30007B681B681433D7F8C4203A63FB62F96AB7
:104C40003A6B41E80023BB62BB6A002BE3D17B686F
:104C5000202283F842207B6800221A637B681B684D
:104C60000C333B613B6953E8003FFB60FB6823F07A
:104C70001003C7F8C0307B681B680C33D7F8C0201E
:104C8000FA61BB61B969FA6941E800237B617B691C
:104C9000002BE3D17B6802225A63B7F8CE30194665
:104CA000786800F047F823E0D7F8E43003F0800399
:104CB000002B09D0D7F8E03003F08003002B03D09D
:104CC000786800F04AF914E0D7F8E43003F04003C4
:104CD000002B0ED0D7F8E03003F04003002B08D0B3
:104CE000786800F08AF904E000BF02E000BF00E04D
:104CF00000BFE837BD4680BD80B483B000AF7860A8
:104D000000BF0C37BD465DF8047B704780B483B0AC
:104D100000AF786000BF0C37BD465DF8047B70477C
:104D200080B483B000AF786000BF0C37BD465DF83B
:104D3000047B704780B483B000AF78600B467B8003
:104D400000BF0C37BD465DF8047B704780B586B068
:104D500000AFF860B9603B601346FB713BE03B6A13
:104D6000B3F1FF3F37D0FDF75DF902463B68D31A38
:104D70003A6A9A4202D33B6A002B01D103233AE0FC
:104D8000FB681B68DB6803F00403002B23D0BB68BF
:104D9000802B20D0BB68402B1DD0FB681B681B6894
:104DA00003F00803082B16D100237B61FB681B6806
:104DB0001B687B61FB681B685B687B617B69F868CB
:104DC00000F057F8FB6808225A64FB68002283F859
:104DD000402001230FE0FB681B681A68BB68134082
:104DE000BA689A420CBF01230023DBB21A46FB7952
:104DF0009A42B4D0002318461837BD4680BD80B40F
:104E000085B000AFF860B9601346FB80FB68BA68F4
:104E10009A62FB68FA889A85FB68FA88DA85FB68EB
:104E200000225A64FB68222283F84220FB681B6937
:104E3000002B07D0FB681B68DA68FB681B6842F42C
:104E40008072DA60FB681B685A69FB681B6842F075
:104E500001025A61FB681B68DA68FB681B6842F054
:104E60002002DA60002318461437BD465DF8047B43
:104E7000704780B495B000AF78607B681B680C33D6
:104E80007B637B6B53E8003F3B633B6B23F4907386
:104E9000FB647B681B680C33FA6C3A64FB63F96B48
:104EA0003A6C41E80023BB63BB6B002BE5D17B6808
:104EB0001B6814333B623B6A53E8003FFB61FB69AC
:104EC00023F00103BB647B681B681433BA6CFA627D
:104ED000BB62B96AFA6A41E800237B627B6A002BF5
:104EE000E5D17B681B6B012B19D17B681B680C33E8
:104EF000FB60FB6853E8003FBB60BB6823F0100316
:104F00007B647B681B680C337A6CBA617B6179695E
:104F1000BA6941E800233B613B69002BE5D17B681E
:104F2000202283F842207B6800221A6300BF543796
:104F3000BD465DF8047B704780B584B000AF7860F3
:104F40007B689B6BFB60FB680022DA85F868FFF7E3
:104F5000E7FE00BF1037BD4680BD80B485B000AF0E
:104F600078607B6893F84130DBB2212B3ED17B68BF
:104F70009B68B3F5805F14D17B681B69002B10D14F
:104F80007B681B6AFB60FB681B881A467B681B6892
:104F9000C2F308025A607B681B6A9A1C7B681A621B
:104FA00008E07B681B6A591C7A6811621A787B6872
:104FB0001B685A607B68DB8C9BB2013B9BB27A68B2
:104FC0001946D184002B0FD17B681B68DA687B6897
:104FD0001B6822F08002DA607B681B68DA687B68F5
:104FE0001B6842F04002DA60002300E0022318460A
:104FF0001437BD465DF8047B704780B582B000AFC2
:1050000078607B681B68DA687B681B6822F0400266
:10501000DA607B68202283F841207868FFF76CFE15
:10502000002318460837BD4680BD80B58CB000AF60
:1050300078600023FB620023BB627B6893F84230F8
:10504000DBB2222B40F0AA807B689B68B3F5805FBF
:1050500015D17B681B69002B11D17B689B6ABB62F1
:105060007B681B685B689BB2C3F308039AB2BB6A98
:105070001A807B689B6A9A1C7B689A6224E07B6832
:105080009B6AFB627B689B68B3F5805F07D07B6897
:105090009B68002B0AD17B681B69002B06D17B68BB
:1050A0001B685B68DAB2FB6A1A7008E07B681B68F1
:1050B0005B68DBB203F07F03DAB2FB6A1A707B68CD
:1050C0009B6A5A1C7B689A627B68DB8D9BB2013BB2
:1050D0009BB27A681946D185002B5DD17B681B682D
:1050E000DA687B681B6822F02002DA607B681B6844
:1050F000DA687B681B6822F48072DA607B681B6860
:105100005A697B681B6822F001025A617B68202281
:1051100083F842207B6800225A637B681B6B012B5B
:1051200035D17B6800221A637B681B680C337B6176
:105130007B6953E8003F3B613B6923F010037B62CE
:105140007B681B680C337A6A3A62FB61F9693A6AD8
:1051500041E80023BB61BB69002BE5D17B681B687C
:105160001B6803F01003102B0AD10023FB607B683F
:105170001B681B68FB607B681B685B68FB60FB68E7
:105180007B689B8D19467868FFF7D4FD02E078684C
:10519000FFF7BCFD002302E0002300E002231846D5
:1051A0003037BD4680BD00002DE9B04FC0B000AF24
:1051B000C7F8F400D7F8F4301B681B6923F440509B
:1051C000D7F8F430D968D7F8F4301A6840EA010308
:1051D0001361D7F8F4309A68D7F8F4301B691A4392
:1051E000D7F8F4305B691A43D7F8F430DB6913431E
:1051F000C7F8F830D7F8F4301B68DB6823F41641A1
:1052000021F00C01D7F8F4301A68D7F8F8300B43C6
:10521000D360D7F8F4301B685B6923F44070D7F88B
:10522000F4309969D7F8F4301A6840EA0103536101
:10523000D7F8F4301A688F4B9A4205D0D7F8F4307B
:105240001A688D4B9A4204D1FEF7BAFAC7F8FC00EF
:1052500003E0FEF7A1FAC7F8FC00D7F8F430DB69E9
:10526000B3F5004F40F00C81D7F8FC300022C7F8AE
:10527000E830C7F8EC20D7E93A4522462B4691188A
:10528000B9655B41FB65D7E91623214612EB01089E
:10529000294643EB01094FF000024FF000034FEAAB
:1052A000C90343EA58734FEAC80290469946234619
:1052B00018EB0303C7F8E0302B4649EB0303C7F8AC
:1052C000E430D7F8F4305B680022C7F8D830C7F86C
:1052D000DC20D7E936120B46DB183B65134642EB60
:1052E00003037B65D7E91423D7E93801FBF7CCFC2E
:1052F00002460B46614BA3FB02235B091C01D7F856
:10530000FC300022C7F8D030C7F8D420D7E9348960
:1053100042464B469118B9645B41FB64D7E91223BE
:10532000414612EB010A494643EB010B4FF00002E4
:105330004FF000034FEACB0343EA5A734FEACA0225
:1053400092469B4643461AEB0303C7F8C8304B46C8
:105350004BEB0303C7F8CC30D7F8F4305B6800227E
:10536000C7F8C030C7F8C420D7E930120B46DB18A5
:105370003B64134642EB03037B64D7E91023D7E970
:105380003201FBF781FC02460B4611463B4BA3FB67
:1053900001235B09642202FB03F3CB1ADB0003F158
:1053A0003202364BA3FB02235B095B0003F4F87364
:1053B0001C44D7F8FC300022C7F8B830C7F8BC202E
:1053C000D7E92E8942464B469118B9635B41FB638E
:1053D000D7E90E2341465118396349464B417B6357
:1053E0004FF000024FF00003D7E90CAB5946CB0059
:1053F000514643EA51735146CA00104619460346C6
:1054000042469B18C7F8B0304B460A4642EB0303AE
:10541000C7F8B430D7F8F4305B680022C7F8A8307A
:10542000C7F8AC20D7E92A120B46DB18BB6213463B
:1054300042EB0303FB62D7E90A23D7E92C01FBF710
:1054400023FC02460B460D4BA3FB02135B096421B0
:1054500001FB03F3D31ADB003233084AA2FB032318
:105460005B0903F00702D7F8F4301B6822449A6006
:1054700006E100BF00100140001401401F85EB5100
:10548000D7F8FC300022C7F8A030C7F8A420D7E92D
:10549000288942464B46911839625B417B62D7E9C5
:1054A000082341465418494643EB01054FF00002DA
:1054B0004FF00003EB0043EA5473E20014461D462C
:1054C0004346E318C7F898304B4645EB0303C7F84B
:1054D0009C30D7F8F4305B680022C7F89030C7F8EA
:1054E00094204FF000024FF00003D7E924452946ED
:1054F0008B00214643EA917321468A00D7E92601B1
:10550000FBF7C2FB02460B46604BA3FB02235B0981
:105510001C01D7F8FC300022C7F88830C7F88C206F
:10552000D7E9228942464B469118B9615B41FB613C
:10553000D7E9062341465118396149464B417B6101
:105540004FF000024FF00003D7E904AB5946CB00FF
:10555000514643EA51735146CA0010461946034664
:1055600042469B18C7F880304B460A4642EB03037D
:10557000C7F88430D7F8F4305B680022BB67FA675D
:105580004FF000024FF00003D7E91E8949468B0017
:10559000414643EA917341468A00D7E92001FBF76F
:1055A00073FB02460B461146384BA3FB01235B09F4
:1055B000642202FB03F3CB1A1B013233334AA2FBF2
:1055C00003235B0903F0F0031C44D7F8FC300022EE
:1055D0003B677A67D7E91C8942464B469118B96008
:1055E0005B41FB60D7E902234146511839604946C7
:1055F0004B417B604FF000024FF00003D7E900AB56
:105600005946CB00514643EA51735146CA001046F1
:105610001946034642469B18BB664B460A4642EB78
:105620000303FB66D7F8F4305B6800223B667A66BA
:105630004FF000024FF00003D7E9188949468B006C
:10564000414643EA917341468A00D7E91A01FBF7C4
:105650001BFB02460B460D4BA3FB02135B096421A7
:1056600001FB03F3D31A1B013233084AA2FB0323C5
:105670005B0903F00F02D7F8F4301B6822449A60EC
:1056800000BF07F58077BD46BDE8B08F1F85EB51A1
:1056900080B582B000AF03460A46FB711346BB716A
:1056A000BB7903F00103002B14D0FB795A4A342153
:1056B00001FB03F3134404331868FB79564A342181
:1056C00001FB03F3134408331B8801221946FDF73D
:1056D00019FC13E0FB79504A342101FB03F3134416
:1056E00004331868FB794C4A342101FB03F313445B
:1056F00008331B8800221946FDF704FCBB7903F030
:105700000203002B14D0FB79434A342101FB03F33D
:1057100013440C331868FB793F4A342101FB03F32F
:10572000134410331B8801221946FDF7EBFB13E0ED
:10573000FB79394A342101FB03F313440C33186815
:10574000FB79354A342101FB03F3134410331B88E2
:1057500000221946FDF7D6FBBB7903F00403002BAA
:1057600014D0FB792C4A342101FB03F31344143386
:105770001868FB79284A342101FB03F313441833DA
:105780001B8801221946FDF7BDFB13E0FB79224A75
:10579000342101FB03F3134414331868FB791E4AC8
:1057A000342101FB03F3134418331B8800221946EC
:1057B000FDF7A8FBBB7903F00803002B14D0FB799D
:1057C000154A342101FB03F313441C331868FB7999
:1057D000114A342101FB03F3134420331B880122B7
:1057E0001946FDF78FFB13E0FB790B4A342101FBCF
:1057F00003F313441C331868FB79074A342101FB77
:1058000003F3134420331B8800221946FDF77AFB6B
:1058100000BF0837BD4680BD98A7000880B588B096
:1058200000AF03460A46FB711346BB71FB79574A2A
:10583000342101FB03F313442C331868FB79534ADA
:10584000342101FB03F3134430331B880022194633
:10585000FDF758FBBA79FB7911461846FFF718FF98
:10586000FB794A4A342101FB03F3134424331868BB
:10587000FB79464A342101FB03F3134428331B8888
:1058800000221946FDF73EFB414B9B68FB61414BF3
:105890001B68414AA2FB03239A0C13469B001A443F
:1058A0003C4B1B683C49A1FB03139B0C5B08D31AC0
:1058B000BB61374B9B68FA69D31ABA699A42F8D828
:1058C000FB79324A342101FB03F313442433186873
:1058D000FB792E4A342101FB03F3134428331B8840
:1058E00001221946FDF70EFB294B9B687B61294B72
:1058F0001B68294AA2FB03239A0C13469B001A44F7
:10590000244B1B682449A1FB03139B0C5B08D31A8F
:105910003B611F4B9B687A69D31A3A699A42F8D85F
:10592000FB791A4A342101FB03F31344243318682A
:10593000FB79164A342101FB03F3134428331B88F7
:1059400000221946FDF7DEFA114B9B68FB60114BF4
:105950001B68114AA2FB03239B0C642203FB02F287
:105960000C4B1B680C49A1FB03139B0C5B08D31A5F
:10597000BB60074B9B68FA68D31ABA689A42F8D89A
:1059800000BF00BF2037BD4680BD00BF98A70008FC
:1059900010E000E00000002083DE1B4380B586B0ED
:1059A00000AF0346FB71FB7900211846FFF736FF75
:1059B000FB7901211846FFF731FF00237B611FE0CF
:1059C000134B9B683B61134B1B68134AA2FB0323D9
:1059D0009B0C4FF47A7203FB02F20E4B1B680E49CC
:1059E000A1FB03139B0C5B08D31AFB60084B9B685D
:1059F0003A69D31AFA689A42F8D87B6901337B6115
:105A00007B69012BDCD900BF00BF1837BD4680BDC4
:105A100010E000E00000002083DE1B4380B584B06E
:105A200000AF0346FB710B46BB7113467B71BB791C
:105A3000012B15D17B797F33FB73FB7B1B09BB7378
:105A4000FB7B03F00F037B73BA7BFB79114618468F
:105A5000FFF7E4FE7A7BFB7911461846FFF7DEFE7E
:105A6000BB79022B15D17B79413BFB73FB7B1B0977
:105A7000BB73FB7B03F00F037B73BA7BFB7911468F
:105A80001846FFF7CBFE7A7BFB7911461846FFF7E5
:105A9000C5FE00BF1037BD4680BD000080B58EB08A
:105AA00000AF0346FB7100BFFCF7BCFA0346312B85
:105AB000FAD9FB797C4A342101FB03F313442C33DC
:105AC0001868FB79784A342101FB03F3134430331F
:105AD0001B8800221946FDF715FAFB79724A34211A
